:07000000020E3F8FED2232DA
:10000B000206169080117403F0E4FF7843E6FEEFCE
:10001B00C39E501D74332FF8E675F003A42461F5CD
:10002B0082E4340FF583120DCC7404120AF30F80A3
:02003B00DA22C7
:1000430002085CED900F5C93FE74542FF582E43448
:0600530001F583EEF0222E
:0B005B0002000641000000012200002E
:10006B00020800E4F5151202821201F51201878FC6
:10007B00161201EA1201878F17E51764026008E573
:10008B001764036002C209E5167061E5177045122B
:10009B0001BB12024770291201CBE06002214978A3
:1000AB0065120D0D1201BB120D4E120CE27865128A
:1000BB000D5E120219743CF01201CB7402F0807EBB
:1000CB001201CB7402F0120219E070721201B61217
:1000DB000266804B1201BB120247600E1201CBE08D
:1000EB00705C1201B6120266804A8048E5177007F1
:1000FB00120191E4FD8042120274600A1202301266
:10010B00019C7D0280331202821201E21201EA7B12
:10011B00147A0012097EEF601B1201CBE0701F12E4
:10012B000191E51512029F1201E21202301201AE8B
:10013B007D028005120191AD17AF15120046051512
:10014B00E515C3941050020171120274601612026D
:10015B00577011120948500C7865120D760000008B
:10016B000012089B7865120D0D900130120D6A126A
:10017B000257600475250122E4F525227B147A00D1
:10018B00AF151206AE22E51525E024EDF582E43419
:10019B0000F583E0FEA3E0FFE51525E02401F582E1
:1001AB00E43400F583EEF0A3EFF0227865120D3501
:1001BB00E51525E025E0240CF582E4340FF58322C8
:1001CB0074542515F582E43401F58322E51525E0F9
:1001DB00240EF582E43401F583E0FEA3E0FF22E573
:1001EB001525E024EDF582E43400F583E0FCA3E073
:1001FB00FD2274342515F582E43401F58322E515CF
:10020B0075F00AA4244BF582E43400F58322744480
:10021B002515F582E43401F58322EF25E0246BF5F7
:10022B0082E4340122E51525E0242BF582E4340029
:10023B0022EF25E02469F582E4340122120D2578A2
:10024B0065120D35120CD5EC4D4E4F22E4FFFEFD21
:10025B00FC900130120D42C3020CFC120D25120C46
:10026B00EF120CD57865020D5EE4FFFEFDFC7865A0
:10027B00120D35C3020CFCE51525E02401F582E4D3
:10028B00340022ED25E02409F82225E0240EF58226
:10029B00E434012225E024EDF582E4340022F582DA
:1002AB00E43400F583EFF0229000ECE0AD267C0007
:1002BB002DFFEC33FEEF25E0FFEE33FE742B2FF515
:1002CB008274003EF583E022FAA3E0FBED2500FFEC
:1002DB00EC33FEEF25E0FFEE33FE74ED2FF5827469
:1002EB00003EF583E022900F0B93FCFFEDC39FFFC5
:1002FB00E49400FEEF780522FFECFDC374809DFDB6
:10030B00E49400FC020B6C75F00290002B020DC004
:10031B00FFC3EB9FFFEA9E900164F0A3EFF0EDFFAC
:10032B00900164E48FF0020BA29000ED75F002E5F2
:10033B0018020DC0FFC374209FFFE49400FE120B44
:10034B0005EF780622ED75F004A4FF900164E5F04B
:10035B00F0A3EFF0226480F8E51A64809822900FE6
:10036B000B93FFEDC39F22E500C313FEE50013FFC4
:10037B00C3E5009F22AC00AD00120B17AD07229016
:10038B000164E0FAA3E0FBAE02780222FEA3E0FFD9
:10039B00AD03AC02020E12FEA3E02BFFEE3AFEC33E
:1003AB00EF22FEA3E0FBAA06E4F9F822900164E039
:1003BB00FEA3E0780222AC00AD00120B17AD0722B2
:1003CB009000EBE0700FF5231207B39000EB740174
:1003DB00F0752232229000EBE064016002819C20D8
:1003EB000802819CC2081522E5226003E48197E490
:1003FB007864F6F515E515C37843965068E5152531
:10040B00E025E024CDF582E4340EF583E493FE740D
:10041B000193FFE51525E02444F8A60608A6077D01
:10042B0002AF15120046E4FFE5151202951201F515
:10043B00E51512020B75F002EF120DC0ECF0A3EDF7
:10044B00F00FBF05E374342515120201E4F012011D
:10045B00D7E5151202321201AE1201D7E5151201C2
:10046B00A5051580901209AC900021EFF0751501D0
:10047B00900021E0FF742125151202A90515E51541
:10048B00B40AEDE4900166F078327601F523120799
:10049B00B322E4F515E515C37843964002A1641227
:1004AB0001FDE004F01201FDE0C3940540051201CB
:1004BB00FDE4F0E5151201D9120209C083C08212C6
:1004CB0001FDE0D082D08375F002120DC0EEF0A3D7
:1004DB00EFF0E4F51612020975F002E516120DC0E5
:1004EB00E0FEA3E0FFE51612023D1201AE0516E594
:1004FB0016B405E1E4F516E4FFC374049516FEEF9C
:10050B00C39E50391202251201F512023CF583E00D
:10051B00FAA3E0FBD39DEA9C40208A178B181202AA
:10052B00251201F512023CF583ECF0A3EDF012025B
:10053B0025F583E517F0A3E518F00F80BC0516E54C
:10054B0016640370B290016DE0FEA3E0FFE5151297
:10055B00029F1201AE051581A022908109E054E0A3
:10056B006004E044E0F085C008E4FD74017E00A85F
:10057B0005088005C333CE33CED8F9FFACC7ECFBEF
:10058B00EF5B601C7401A805088002C333D8FCF52F
:10059B00C78DC012028EA6CFED25E0240AF8A6CE99
:1005AB000DBD06C7E4FDEDFFE5232FFFE433FE7819
:1005BB0043E67A00B50715EAB5061112028EE6FF7F
:1005CB0008E6900167CFF0A3EFF0801512028EE6DC
:1005DB00FE08E6FFE5232D1202951201AE0DBD06B6
:1005EB00C5E5232406FFE433FE7843E6FDD3EF9DF8
:1005FB007480F86E984007D208E4F52380067406E1
:10060B002523F5231207B38508C022C0E0C0D0759F
:10061B00D000C000758A00758CFDD283D280D2B316
:10062B00742B2530F8E6F520A2009282A20192B23B
:10063B00A2029285A2039287A20492B4A205928190
:10064B00A2069284A2079286E53014600B14600C0C
:10065B002402700AC2838006C2808002C2B30530B6
:10066B00E530D394024003753000D2A0D296742E9D
:10067B002531F8E6F520A2009293A2019294A202F2
:10068B009295E531146007047006C2A08002C296F1
:10069B000531E531D394014003753100D000D0D042
:1006AB00D0E0328A188B19A907E9120312E0FEA3D6
:1006BB00E0C39DF51BEE9CF51AE925E02444F8E612
:1006CB00F51C08E6F51D75F004EF900F0C120DC02C
:1006DB00120D257865120D35120CD5EC4D4E4F6071
:1006EB0014AE1CAF1D7C007D50120B057D64120BEC
:1006FB006C8E1C8F1DC3E51B951DE51C1203604002
:10070B00037F0022D3E51B9519E518120360400304
:10071B007F0122C3E51A6480948040037F0222C3C9
:10072B00E49519FFE49518FEC3E51B9FEE120360D9
:10073B007F0440027F032278437610E4FFFEEE2510
:10074B00E025E024CBF582E4340EF583740193FDB0
:10075B00AC070F74332CF8A6050EBE10E143A18035
:10076B0043A2807B017D017F01120AB7E4FF1200D7
:10077B0003D2EE12000E75C20A75C140908103744C
:10078B006BF0D2E9C208900130120D8F000000000F
:10079B007865120D7600000000E4F5257832F690AE
:1007AB0000EBF090012EF022E4FFEFC39406503ED5
:1007BB00EFFDE5232DFDE433FC7843E6FBC3ED9B16
:1007CB007480F86C9840168FC075C455EF04FEEE1C
:1007DB00C3940650198EC075C4400E80F28FC0E5CD
:1007EB00232F2433F8E6044440F5C40F80BC43C1E7
:0207FB0080225A
:10080000C0E0C0F0C083C082C0D075D000C000C0BE
:1008100001C002C003C004C005C006C007E5EE3039
:10082000E21475EE04120912E52A45296008E52A4A
:10083000152A70021529E5EE30E10675EE02120A5E
:1008400003D007D006D005D004D003D002D001D009
:1008500000D0D0D082D083D0F0D0E032C0E0C0F061
:10086000C083C082C0D075D000C000C001C002C02B
:1008700003C004C005C006C007E5C76003120565D4
:10088000D007D006D005D004D003D002D001D000CC
:10089000D0D0D082D083D0F0D0E032E4F518E51883
:1008A000C37843965030120334E0FEA3E0FF90007B
:1008B00001120337EEF0A3EFF0120334E0FEA3E0E1
:1008C000FFE518120312EEF0A3EFF07D02AF18124D
:1008D0000046051880C8221209D9D2AF1207421269
:1008E0000A74E4FFFEFDFC900130120D42C3120CAD
:1008F000FC60EC900130120D19120DD808DF0000D9
:10090000000108DF0000000208DF00000004000012
:1009100008DF900000E004F0E0C394044029E4F014
:10092000FF7843E6FEEFC39E501574542F1201CF9B
:10093000E0600974542F1201CFE014F00F80E290B0
:10094000012EE0600214F022900166E0FFB4090776
:10095000900021E0FC800C74222FF582E43400F535
:1009600083E0FC1209ACECD39F4005EC9FFB8004B4
:10097000C3EF9CFBEBD394084002D322C322C3EF06
:100980009DFFEE9CFED3EF9BEA6480F8EE648098B6
:100990005017C3E49BFDE49AFCC3EF9DEC6480F820
:1009A000EE64809840037F01227F0022E5B930E7A2
:1009B00005E5B930E5FBAFB9AEBAADBB75B91C53AF
:1009C000BB1F75BA8943B980E5B930E5FB43B9204F
:1009D0008FB98EBA8DBBAFBD22A2AF920AC2AF75DE
:1009E000EF807F017E00120AD675EFC243EF20A28E
:1009F0000A92AF7F06120A2A120A97E5BB54E04F0B
:100A0000F5BB22E4FF74442F12021DE06009744418
:100A10002F12021DE014F00FBF10EA7864E66001A7
:100A20001690012FE0600214F022EFC39402401FE1
:100A3000EFD3940A5019EF24FE33333354F8448033
:100A4000F5ADE5AD30E0FBE5A254F84404F5A22293
:100A500090012EE0701D7403F0900166E004F0E058
:100A6000C3940A4002E4F01209AC900166E024212C
:100A70001202A9227832E61460060470190203CB30
:100A8000300813C208120A5012049DD209E52564E9
:100A900002600312006E2290FC017480F0E490FC6E
:100AA00006F090FC057424F090FC017481F0A3E042
:100AB000FFE490FC01F022EFC43333335480FFE5B0
:100AC000F1541F4FFFEDC4333354C04FFFEBC43319
:100AD00054E04FF5F1227C007D06120B05EF1FACB0
:100AE0000670011E4C600BE4FBEBC3940F50EE0B41
:100AF00080F722BB010689828A83F0225002F72206
:100B0000BBFE01F322EF8DF0A4A8F0CF8CF0A42857
:100B1000CE8DF0A42EFE22BC000BBE0029EF8DF07E
:100B200084FFADF022E4CCF875F008EF2FFFEE3330
:100B3000FEEC33FCEE9DEC984005FCEE9DFE0FD5DF
:100B4000F0E9E4CEFD22EDF8F5F0EE8420D21CFEB3
:100B5000ADF075F008EF2FFFED33FD40079850061C
:100B6000D5F0F222C398FD0FD5F0EA22C2D5EC30C1
:100B7000E709B2D5E4C39DFDE49CFCEE30E715B275
:100B8000D5E4C39FFFE49EFE120B17C3E49DFDE472
:100B90009CFC8003120B1730D507C3E49FFFE49E33
:100BA000FE22C5F0F8A3E028F0C5F0F8E582158232
:100BB00070021583E038F022E88FF0A4CC8BF0A40B
:100BC0002CFCE98EF0A42CFC8AF0EDA42CFCEA8E1F
:100BD000F0A4CDA8F08BF0A42DCC3825F0FDE98F42
:100BE000F0A42CCD35F0FCEB8EF0A4FEA9F0EB8F39
:100BF000F0A4CFC5F02ECD39FEE43CFCEAA42DCE06
:100C000035F0FDE43CFC2275F008758200EF2FFF03
:100C1000EE33FECD33CDCC33CCC58233C5829BEDD4
:100C20009AEC99E58298400CF582EE9BFEED9AFDD8
:100C3000EC99FC0FD5F0D6E4CEFBE4CDFAE4CCF988
:100C4000A88222B800C1B90059BA002DEC8BF084FB
:100C5000CFCECDFCE5F0CBF97818EF2FFFEE33FEC9
:100C6000ED33FDEC33FCEB33FB10D703994004EB81
:100C700099FB0FD8E5E4F9FA227818EF2FFFEE334D
:100C8000FEED33FDEC33FCC933C910D7059BE99A5F
:100C90004007EC9BFCE99AF90FD8E0E4C9FAE4CCF0
:100CA000FB2275F010EF2FFFEE33FEED33FDCC335A
:100CB000CCC833C810D7079BEC9AE899400AED9B43
:100CC000FDEC9AFCE899F80FD5F0DAE4CDFBE4CC22
:100CD000FAE4C8F922EF5BFFEE5AFEED59FDEC583D
:100CE000FC22EF4BFFEE4AFEED49FDEC48FC22CF23
:100CF000F4CFCEF4CECDF4CDCCF4CC22EB9FF5F0F6
:100D0000EA9E42F0E99D42F0E89C45F022E6FC08AC
:100D1000E6FD08E6FE08E6FF22E0FCA3E0FDA3E016
:100D2000FEA3E0FF22E493FC740193FD740293FEA2
:100D3000740393FF22E6FB08E6F908E6FA08E6CB1F
:100D4000F822E0F8A3E0F9A3E0FAA3E0FB22E493A1
:100D5000F8740193F9740293FA740393FB22ECF68E
:100D600008EDF608EEF608EFF622ECF0A3EDF0A39E
:100D7000EEF0A3EFF022D083D082E493F608740162
:100D800093F608740293F608740393F6740473A838
:100D9000828583F0D083D082120DA6120DA6120D8B
:100DA000A6120DA6E473E493A3C583C5F0C583C85A
:100DB000C582C8F0A3C583C5F0C583C8C582C82253
:100DC000A42582F582E5F03583F58322E493FB7454
:100DD0000193FA740293F922D083D082E4937012C3
:100DE000740193700DA3A393F8740193F582888323
:100DF000E4737402936C70127403936D700C74043A
:100E0000936E70067405936F60DDA3A3A3A3A3A3E1
:100E100080CAEC8EF0A4CCC5F0CCCDF8EFA4CEC542
:100E2000F02DFDE43CFCE8A42EC8C5F03DFDE43CFB
:100E3000FCEFA4FFE5F028FEE43DFDE43CFC227855
:100E40007FE4F6D8FD758168020E860208D7E49328
:100E5000A3F8E493A34003F68001F208DFF48029AD
:100E6000E493A3F85407240CC8C333C4540F44209C
:100E7000C8834004F456800146F6DFE4800B01028B
:100E800004081020408090005EE47E019360BCA3C3
:100E9000FF543F30E509541FFEE493A360010ECFD9
:100EA00054C025E060A840B8E493A3FAE493A3F803
:100EB000E493A3C8C582C8CAC583CAF0A3C8C582C3
:100EC000C8CAC583CADFE9DEE780BE000000320081
:100ED0000100410002003700030037000400370022
:100EE0000500410006004B0007004B000B004600C8
:100EF0000C0041000D0037000E0032000F002D00E5
:100F000010002D0011003700120041000000000108
:100F100000000002000000040000000800000010B3
:100F200000000020000000400000008000000100E0
:100F30000000020000000400000008000000100093
:100F400000002000000040000000800000010000C0
:100F50000002000000040000000800000232321EFF
:100F60001E01800801800901800A01800B01800CAC
:100F700001800D01800E01800F01801F01801E0184
:100F8000801D01801C018007018006018005018011
:0D0F90000401800301800201800101800046
:00000001FF
