:09000000020B89E5D970FC2232E3
:10000B00020A5F9080117403F0E4FF7836E6FEEF8E
:10001B00C39E501D742E2FF8E675F003A4242EF505
:10002B0082E43412F58312021E740412006E0F80E8
:02003B00DA22C7
:10004300020F1F758901758CF8758ACDC28DC2A9FF
:07005300C28CC2B9D2AF223A
:10005B00020008ED33333354F8FFE5DB54F04F2245
:10006B0002080CBB010689828A83F0225002F72218
:10007B00BBFE01F322EF8DF0A4A8F0CF8CF0A428E7
:10008B00CE8DF0A42EFE22BC000BBE0029EF8DF00E
:10009B0084FFADF022E4CCF875F008EF2FFFEE33C0
:1000AB00FEEC33FCEE9DEC984005FCEE9DFE0FD56F
:1000BB00F0E9E4CEFD22EDF8F5F0EE8420D21CFE43
:1000CB00ADF075F008EF2FFFED33FD4007985006AC
:1000DB00D5F0F222C398FD0FD5F0EA22C2D5EC3051
:1000EB00E709B2D5E4C39DFDE49CFCEE30E715B205
:1000FB00D5E4C39FFFE49EFE120092C3E49DFDE492
:10010B009CFC800312009230D507C3E49FFFE49E52
:10011B00FE22C5F0F8A3E028F0C5F0F8E5821582C1
:10012B0070021583E038F02275F008758200EF2F0E
:10013B00FFEE33FECD33CDCC33CCC58233C5829BA2
:10014B00ED9AEC99E58298400CF582EE9BFEED9AC8
:10015B00FDEC99FC0FD5F0D6E4CEFBE4CDFAE4CC64
:10016B00F9A88222B800C1B90059BA002DEC8BF066
:10017B0084CFCECDFCE5F0CBF97818EF2FFFEE3323
:10018B00FEED33FDEC33FCEB33FB10D7039940044E
:10019B00EB99FB0FD8E5E4F9FA227818EF2FFFEE75
:1001AB0033FEED33FDEC33FCC933C910D7059BE9A6
:1001BB009A4007EC9BFCE99AF90FD8E0E4C9FAE402
:1001CB00CCFB2275F010EF2FFFEE33FEED33FDCCA1
:1001DB0033CCC833C810D7079BEC9AE899400AED8B
:1001EB009BFDEC9AFCE899F80FD5F0DAE4CDFBE433
:1001FB00CCFAE4C8F922EB9FF5F0EA9E42F0E99DB8
:10020B0042F0E89C45F022A42582F582E5F0358387
:10021B00F58322E493FB740193FA740293F922D0D1
:10022B0083D082F8E4937012740193700DA3A3939F
:10023B00F8740193F5828883E473740293B5F00626
:10024B007403936860E9A3A3A3A380D8EC8EF0A4F6
:10025B00CCC5F0CCCDF8EFA4CEC5F02DFDE43CFC25
:10026B00E8A42EC8C5F03DFDE43CFCEFA4FFE5F08F
:10027B0028FEE43DFDE43CFC22E52A4529700302FF
:10028B0003E5E52A8529F012022A02D9000102F7BB
:10029B00000202FE000303050004030C0005031318
:1002AB000006031C00070332100803963002031AE2
:1002BB004002031A4003031A4004031A4005031AB1
:1002CB004006031A4007036440080000039D90009A
:1002DB00CDE0FEA3E0FF5401FBEF54FEFFEB640106
:1002EB005401FDEF4DFF9000CD02038F120E9A4487
:1002FB00188023120E9A4414801C120E9A441080FC
:10030B0015120E9A440C800E120E9A440880078028
:10031B000A120E9A44049000CD806A9000CDE054EE
:10032B0003F0A3E0F0806B120EA6FFED54F1FDEF8E
:10033B002401FFEF540725E0FFE4334CFEEF4D1291
:10034B000ED3120EA65407C39403E494004043ED5E
:10035B0054F1FF9000CDEC802C120D679000D0E093
:10036B004404F09000CF120EA95401FFED54FDFD93
:10037B00EF6401540125E0FFE433FEEC4EFEED4F3C
:10038B00FF9000CFEEF0A3EFF080079000D0E05489
:10039B00FBF09000CDE0FCA3E0FDEC1313543F7099
:1003AB0008C2A9C28DC28C802A7F00208C027F01DB
:1003BB00EFFBECC4F854F0C8EDC4540F48543FFFA6
:1003CB00EB5F600FE49000C0F09000BEF0A3F0D2A2
:1003DB00A9D28C9000D0E04401F09000CEE030E048
:1003EB00249000D0E030E20F051CE51CC394504074
:1003FB0006E4F51C120F5E9000D0E0FF20E20354E0
:10040B00FBF0120EDD9000CEE020E00FE49000CB6D
:10041B00F0A3F0A3E05403F0A3E0F012112F020AB3
:10042B00F890007CE0AD287C002DFFEC33FEEF252F
:10043B00E0FFEE33FE741B2FF58274003EF583E074
:10044B0022FAA3E0FBED2500FFEC33FEEF25E0FFE6
:10045B00EE33FE747D2FF58274003EF583E022901F
:10046B00120C93FCFFEDC39FFFE49400FEEF7805A5
:10047B0022FFECFDC374809DFDE49400FC0200E7B9
:10048B0075F00290001B020212FFC3EB9FFFEA9E66
:10049B009000B9F0A3EFF0EDFF9000B9E48FF002FC
:1004AB00011D90007D75F002E518020212FFC37466
:1004BB00209FFFE49400FE120080EF780622C3EB2E
:1004CB009FEE6480F8EA64809822ED75F004A4FF37
:1004DB009000B9E5F0F0A3EFF02290120C93FFED32
:1004EB00C39F22E500C313FEE50013FFC3E5009F86
:1004FB0022AC00AD00120092AD07229000B9E0FAD9
:10050B00A3E0FBAE02780222FEA3E0FFAD03AC0238
:10051B00020257FEA3E02BFFEE3AFEC3EF22FEA32F
:10052B00E0FBAA06E4F9F8229000B9E0FEA3E0781C
:10053B000222AC00AD00120092AD0722E4F51512B9
:10054B0007061206A61206408F1612069B120640CD
:10055B008F17E51764026008E51764036002C20297
:10056B00E516704DE51770381206F8701A12067CF6
:10057B00E0600302060EEF4EF61206CA743CF01250
:10058B00067C7402F0807C12067C7402F01206CAA0
:10059B00E07070E51590120D93F4784856F6804490
:1005AB001206F8605412067CE07058EFF45EF68089
:1005BB0010E5177007120657E4FD80427848E66095
:1005CB000A1206E11206627D02803312070612063A
:1005DB009312069B7B147A0012100FEF601B12060E
:1005EB007CE0701F120657E51512072312069312B3
:1005FB0006E11206747D028005120657AD17AF1582
:10060B001211970515E515C39408500302054A7896
:10061B0048E660109000A0E0700A120DB95005E496
:10062B00F6120F9D7848E69000A0F0600475270144
:10063B0022E4F52722E51590120D9378485624FFF6
:10064B0092037B147A00AF15120CA022E51525E05E
:10065B00247DF582E43400F583E0FEA3E0FFE5158D
:10066B0025E02401F582E43400F583EEF0A3EFF0EE
:10067B002274B12515F582E43400F58322E51525A6
:10068B00E0248EF582E43400F583E0FEA3E0FF2244
:10069B00E51525E0247DF582E43400F583E0FCA329
:1006AB00E0FD2274A12515F582E43400F58322E5E3
:1006BB001575F00AA4242BF582E43400F58322741B
:1006CB00A92515F582E43400F58322EF25E024D328
:1006DB00F582E4340022E51525E0241BF582E43491
:1006EB000022EF25E024D1F582E4340022E51590B9
:1006FB00120D93FF7848E6FEEF5E22E51525E02408
:10070B0001F582E4340022ED25E02409F82225E0EE
:10071B00248EF582E434002225E0247DF582E43436
:10072B000022F582E43400F583EFF02290007BE0A9
:10073B00700FF525120E0890007B7401F0752132B5
:10074B002290007BE06401600302080B200103028E
:10075B00080BC2011521E5216004E4020806E478C8
:10076B0047F6F515E515C37836965068E4FFE515A1
:10077B001207191206A6E5151206BC75F002EF1248
:10078B000212ECF0A3EDF00FBF05E374A1251512D7
:10079B0006B2E4F0120688E5151206E3120674128F
:1007AB000688E51512066BE51525E025E024EEF528
:1007BB0082E43411F583E493FE740193FFE5152570
:1007CB00E02437F8A60608A6077D02AF151211978D
:1007DB000515809012103D900011EFF075150190EA
:1007EB000011E0FF7411251512072D0515E515B441
:1007FB000AEDE49000BBF0782D7601F525120E087A
:10080B0022C0E0C0F0C083C082C0D075D000C00051
:10081B00C001C002C003C004C005C006C007E5EE9E
:10082B0020E2030208BA75EE04120FD9E52C452B12
:10083B006008E52C152C7002152B051B1210B1C48A
:10084B00F854F0C8EDC4540F487A00543FFBEC1336
:10085B0013543F6B7001E47F0060027F01E51BC303
:10086B00941E7E0040027E01EE5F6043751B00907C
:10087B0000CDE01313543FD39BE49A400A1210941B
:10088B002401FFE43E800C9000CD12109424FFFF56
:10089B00EE34FFEF543FC4F8540FC868FFE4C45460
:1008AB00F0484CFEEF4DFF9000CDEEF0A3EFF0E5DE
:1008BB00EE30E10675EE021210BBD007D006D00564
:1008CB00D004D003D002D001D000D0D0D082D083BE
:1008DB00D0F0D0E032E4F515E515C3783696400339
:1008EB000209AD1206AEE004F01206AEE0C39405A9
:1008FB0040051206AEE4F0C2E9E51512068A1206AF
:10090B00BAC083C0821206AEE0D082D08375F002EB
:10091B00120212EEF0A3EFF0D2E9E4F5161206BACA
:10092B0075F002E516120212E0FEA3E0FFE51612C7
:10093B0006EE1206740516E516B405E1E4F516E4A9
:10094B00FFC374049516FEEFC39E50391206D612E0
:10095B0006A61206EDF583E0FAA3E0FBD39DEA9C15
:10096B0040208A178B181206D61206A61206EDF532
:10097B0083ECF0A3EDF01206D6F583E517F0A3E5B3
:10098B0018F00F80BC0516E516640370B29000D505
:10099B00E0FEA3E0FFE5151207231206740515020E
:1009AB0008E322908109E054E06004E044E0F08524
:1009BB00C008E4FD74017E00A805088005C333CE92
:1009CB0033CED8F9FFACC7ECFBEF5B601C7401A80E
:1009DB0005088002C333D8FCF5C78DC0120712A6D9
:1009EB00CFED25E0240AF8A6CE0DBD06C7E4FDED3C
:1009FB00FFE5252FFFE433FE7836E67A00B50715C1
:100A0B00EAB50611120712E6FF08E69000BCCFF01C
:100A1B00A3EFF08015120712E6FE08E6FFE5252D81
:100A2B001207191206740DBD06C5E5252406FFE451
:100A3B0033FE7836E6FDD3EF9D7480F86E98400751
:100A4B00D201E4F525800674062525F525120E083E
:100A5B008508C022C0E0C0F0C083C082C0D075D072
:100A6B0000C000C004C005C006C007758CF8758AAD
:100A7B00CDC28D9000BEE475F00112011D9000BE39
:100A8B00E0B40310A3E0B4E80B9000BEE4F0A3F0D5
:100A9B00A3E004F09000C0E0FF7E00BE0227BF5829
:100AAB0024E4F01210B11313543FFFEC5403FCEF8A
:100ABB0024FFFFEF543F25E025E04CFFED9000CDE8
:100ACB00CFF0A3EFF09000CDE01313543F7009C2A9
:100ADB008CC2A9A3E054FEF0D007D006D005D004F9
:100AEB00D000D0D0D082D083D0F0D0E0329000CDE7
:100AFB00E0C4F854F0C8A3E0C4540F487E00543F40
:100B0B00FFD39405EE94004009120EBED282D2831D
:100B1B00805BD3EF9404EE94004009120EBED28298
:100B2B00C2838049D3EF9403EE94004005120EBEAE
:100B3B008037D3EF9402EE9400400AD2B0D2B1D2F8
:100B4B0080C2818024D3EF9401EE9400400AD2B08E
:100B5B00D2B1C280C2818011D3EF9400EE940040D9
:100B6B000CD2B0C2B1C280C281C282C283EF4E70BE
:100B7B000CC2B0C2B1C280C281C282C28322787F52
:100B8B00E4F6D8FD758148020BD00211AAE493A3B9
:100B9B00F8E493A34003F68001F208DFF48029E424
:100BAB0093A3F85407240CC8C333C4540F4420C870
:100BBB00834004F456800146F6DFE4800B01020407
:100BCB00081020408090106AE47E019360BCA3FF64
:100BDB00543F30E509541FFEE493A360010ECF543C
:100BEB00C025E060A840B8E493A3FAE493A3F8E42B
:100BFB0093A3C8C582C8CAC583CAF0A3C8C582C897
:100C0B00CAC583CADFE9DEE780BEE4F529F52AE52C
:100C1B002670399000A0E0607BE4FFEF90120D93FB
:100C2B00FE9000A0E05E600E8F24EF90121A937579
:100C3B002200F52380040FBF08E185222985232A92
:100C4B00C200752B00752CFA75260122E52664016E
:100C5B007042E52490120D93FF9000A0E05F60219D
:100C6B00E52C452B702E200008D200E52244408055
:100C7B0004E5224420F52985232A752B00752C4683
:100C8B0022E522200004441080024430F5298523FC
:100C9B002AE4F526228A188B19A907E912048BE09E
:100CAB00FEA3E0C39DFFEE9CAB07FAE925E02437DA
:100CBB00F8E6FE08E6FF30030C7C007D5A1200803C
:100CCB007D641200E71204C940037F0022D3EB9529
:100CDB0019E5181204CD40037F0122C3EA64809406
:100CEB008040037F0222C3E49519FFE49518FE129E
:100CFB0004C97F0440027F032278367608E4FFFEA6
:100D0B00EE25E025E024ECF582E43411F583740143
:100D1B0093FDAC070F742E2CF8A6050EBE08E1430D
:100D2B00A18043A28075F1E0E4F5EDD2EE12000E46
:100D3B0075C20A75C1409081037457F0D2E9C201A4
:100D4B00E49000A0F07848F6F527782DF690007B1C
:100D5B00F090009EF0F526F529F52A22120EB47EAE
:100D6B00005407FF70119000C3E0FDA3E09000C991
:100D7B00CDF0A3EDF08028EF64014E700C9000C510
:100D8B00E0FFA3E09000C98011120EB45407640277
:100D9B00700D9000C7E0FFA3E0A3CFF0A3EFF0909E
:100DAB0000CDE0FEA3E054F1440C120ED322E4FA82
:100DBB009000BBE0FFB40907900011E0FC800C74BD
:100DCB00122FF582E43400F583E0FC12103DECD3D6
:100DDB009F4005EC9FFB8004C3EF9CFBEBD3940C73
:100DEB0040190AEA9403501190009E7403F090008E
:100DFB009EE070FA12115380B7D322C322E4FFEFA7
:100E0B00C39406503EEFFDE5252DFDE433FC78360B
:100E1B00E6FBC3ED9B7480F86C9840168FC075C4CD
:100E2B0055EF04FEEEC3940650198EC075C4400EE8
:100E3B0080F28FC0E5252F242EF8E6044440F5C43C
:100E4B000F80BC43C180229080187482F09080196F
:100E5B00F0908000F0908001F0908002F090800381
:100E6B00F090801C7406F0E4F518F519F51A7B0167
:100E7B00FD7F03121177E4FBFA7DE87C037F0312FD
:100E8B0011E17F031211BA1200037F030211C89004
:100E9B0000CDE05403FEA3E0FFEE229000CDE0FC7A
:100EAB00A3E0FDECC313ED13229000CDE0C313A31D
:100EBB00E01322D2B0D2B1D280D281229000C9E00D
:100ECB00FEA3E0FFE4FCFD22FF9000CDEEF0A3EFCC
:100EDB00F022120EB4540714601314601514601E24
:100EEB0024FD60222406702B9000C380089000C55F
:100EFB0080039000C7E0FFA3E09000CB8010900030
:100F0B00CEE054FEF0229000C9E0FFA3E0A3CFF0A7
:100F1B00A3EFF022C0E0C0F0C083C082C0D075D078
:100F2B0000C000C001C002C003C004C005C006C0A1
:100F3B0007E5C760031209AED007D006D005D00471
:100F4B00D003D002D001D000D0D0D082D083D0F04B
:100F5B00D0E0329000D0E030E117120EC77B32FAAE
:100F6B00F9F8C312020150229000C974FFF5F0800A
:100F7B0016120EC77BE87A03F9F8D3120201400A66
:100F8B009000C9E475F00112011D9000D0E04401FE
:100F9B00F022E4F518E518C378369650301204ADFC
:100FAB00E0FEA3E0FF9000011204B0EEF0A3EFF01F
:100FBB001204ADE0FEA3E0FFE51812048BEEF0A3E4
:100FCB00EFF07D02AF18121197051880C822900020
:100FDB0000E004F0E0C394044029E4F0FF7836E627
:100FEB00FEEFC39E501574B12F120680E06009749A
:100FFB00B12F120680E014F00F80E290009EE060AB
:10100B000214F022C3EF9DFFEE9CFED3EF9BEA642C
:10101B0080F8EE6480985017C3E49BFDE49AFCC300
:10102B00EF9DEC6480F8EE64809840037F01227F93
:10103B000022E5B930E705E5B930E5FBAFB9AEBA4B
:10104B00ADBB75B91C53BB3F75BA8943B980E5B9C4
:10105B0030E5FB43B9208FB98EBA8DBBAFBD2201F2
:10106B001B004400CD000000024500BE0000000044
:10107B00004A00C303E801F4006400000000011CF7
:10108B00004100000001210000E0FCA3E0FDECC4E6
:10109B00F854F0C868FEEDC4540F48FFEC54FCFC48
:1010AB00ED540FFDEF229000CDE0FCA3E0FDEC2210
:1010BB00E4FF74A92F1206CEE0600974A92F120663
:1010CB00CEE014F00FBF08EA7847E66001169000F7
:1010DB009FE0600214F022782DE614600804701B68
:1010EB001207378016300113C2011211531208E098
:1010FB00D202E52764026003120547020C15EFC309
:10110B009402401FEFD394085019EF24FE3333336E
:10111B0054F84480F5ADE5AD30E0FBE5A254F8445E
:10112B0004F5A2229000D0E030E01C54FEF09000B9
:10113B00CBE0FAA3E0FB7DE87C037F031211E17F98
:10114B00031211BA1200032290009EE0701D74036B
:10115B00F09000BBE004F0E0C3940A4002E4F0120C
:10116B00103D9000BBE0241112072D228FC0EF30F1
:10117B00E00712005E451A800412005E4BF5DBE5BA
:10118B0018C433333354804519F5DC22ED90121516
:10119B0093FE74B12FF582E43400F583EEF0221246
:1011AB0011D6D2AF120D041210E212028480F87421
:1011BB0001A807088002C333D8FCF5D9227401A813
:1011CB0007088002C333D8FCF5D8227F0612110919
:1011DB00120E520200468FC08CDE8DDD8AD18BDF62
:1011EB0022000000460001003C0002003700030013
:1011FB002D000400370005004600060037000A00EA
:10120B00460001020408102040800264501E1E019B
:10121B0002030405060708090A0B0C0D0E0F10112B
:10122B0012131401800801800901800A01800B014F
:10123B00800C01800D01800E01800F01801F018049
:10124B001E01801D01801C018007018006018005A5
:0F125B00018004018003018002018001018000F5
:00000001FF
