:060000000212388FED2210
:10000B00020800EF25E024ACF582E43413F583E419
:10001B0093FEEF25E024ADF582E43413F583E493EE
:10002B00FFED600874352EF8E64FF62274352EF886
:07003B00E6FEEFF45EF62281
:10004300020CC17F037832E4F608DFFC7F027835C7
:06005300E4F608DFFC22C8
:0D005B00020C81AB39AA3AA93B853D8222F7
:10006B00020AEA900032E0AD2A7C002DFFEC33FE51
:10007B00EF25E0FFEE33FE74192FF58274003EF589
:10008B0083E022FAA3E0FBED2500FFEC33FEEF2526
:10009B00E0FFEE33FE74332FF58274003EF583E000
:1000AB002275F0029000190211B990002575F0022B
:1000BB00E5150211B99012EE93FCFFEDC39FFFE41F
:1000CB009400FEEF780522FFECFDC374809DFDE4E8
:1000DB009400FC020F65E50075F0029000330211ED
:1000EB00B9FFC3EB9FFFEA9E90006BF0A3EFF0ED1F
:1000FB00FF90006BE48FF0020F9B75F00290000DE8
:10010B001211B9EEF0A3EFF022E530FD7C00900068
:10011B0040E0FEA3E0FF020F10FFC374209FFFE43B
:10012B009400FE120EFEEF780622AD03AC02FEA386
:10013B00E0FF02120BED75F004A4FF90006BE5F0ED
:10014B00F0A3EFF0226480F8E51A648098229012F5
:10015B00EE93FFEDC39F22E500C313FEE50013FFF3
:10016B00C3E5009F22AC00AD00120F10AD0722902B
:10017B00006BE0FAA3E0FBAE02780222ED9FEE6487
:10018B0080F8EC64809822FEA3E02BFFEE3AFEC3CE
:10019B00EF22FEA3E0FBAA06E4F9F82290006BE045
:1001AB00FEA3E0780222AC00AD00120F10AD0722C7
:1001BB00E4F515E515C3784696400241B712049E47
:1001CB00120435AF151208988F1612042AAF1512A8
:1001DB0008988F17E51764026008E517640360023F
:1001EB00C20AE5167063E517704712040E12045429
:1001FB00702912041EE0600241B3785412110612EA
:10020B00040E1211471210DB7854121157120464AA
:10021B00743CF012041E7403F041B312041E7403F9
:10022B00F0120464E0600241B312040912049080DE
:10023B005212040E120454600E12041EE070691266
:10024B00040912049080578055E51770071203E4D8
:10025B00E4FD804FE4FFFEFDFC785412112EC31217
:10026B0010F5600A1204841203EF7D02803512042C
:10027B009E12044C12042A120D5DEF602112041E13
:10028B00E070251203E4E51525E02433F582E43410
:10029B000012044C1204841204017D028005120327
:1002AB00E4AD17AF15120E3D051521BE7854121192
:1002BB000690004F121163E4FFFEFDFC90004F12FD
:1002CB00113BC31210F5600475280122E4F52822B6
:1002DB00E4F52BF52CFB7A007915120B46E527700C
:1002EB0024E515700261E3B4010B75240085162516
:1002FB007527018008E515B4020312047085242BC1
:10030B0085252C8052E5276401706BE5156401701F
:10031B0039E516B52522E4B5241EE52F452E6002DE
:10032B0061E3200808D208E52444408004E5244416
:10033B0020F52B85252C61C5E5242008044410806D
:10034B00024430F52B85252C61E0E515B402111222
:10035B00047085242BF52CC208752E00752FFA22FC
:10036B00E5157074E524200804441080024430F530
:10037B002B85252C805FE5276402705CE5156402F4
:10038B00703FE51675F020A4B5250BE5F0B52406F6
:10039B007E007F0180047E007F00EF45174E6038A2
:1003AB00E52F452E7032200808D208E52444408002
:1003BB0004E5244420F52B85252C752E00752F463E
:1003CB0022E5157013E52420080444108002443004
:1003DB00F52B85252CE4F52722E51525E02433F5AF
:1003EB0082E43400F583E0FEA3E0FFE51525E0246D
:1003FB000DF582E43400F583EEF0A3EFF022785490
:10040B0012112EE51525E025E024EFF582E43412D8
:10041B00F58322745E2515F582E43400F58322E51D
:10042B001525E02433F582E43400F583E0FCA3E0EA
:10043B00FD7B0F7A0022E51525E02442F582E4349A
:10044B0000F583E0FEA3E0FF2212111E7854121177
:10045B002E1210CEEC4D4E4F2274552515F582E41D
:10046B003400F58322E51675F020A4FFE5F0F524A2
:10047B00EF4517F52575270222E51525E02419F51B
:10048B0082E434002212111E1210E81210CE78549E
:10049B00021157E51525E0240DF582E4340022ED19
:1004AB0025E02409F82225E02442F582E4340022D9
:1004BB00900031E07011F52DF526120C37900031BC
:1004CB007401F075223222900031E064016002A1C8
:1004DB008A200902A18AC2091522E5226002A184A1
:1004EB00E47853F690006AF0F515E515C378459658
:1004FB005061E51525E025E024D8F582E43412F5AA
:10050B0083E493FE740193FFE51525E02447F8A6D9
:10051B000608A6077D02AF15120E3DE5151204B1B4
:10052B00F583E0FCA3E0FDAF307E00120EFEE51577
:10053B0025E02425F582E43400120401120441E580
:10054B0015120486120401120441E5151203F80575
:10055B0015809790006EE0FCA3E0FD90005CECF042
:10056B00A3EDF0AF307E00120EFE900040EEF0A334
:10057B00EFF0120BEC783E7601E4F526120C3722E5
:10058B007F08120D8B90811EE04480F0120A1E1220
:10059B000E2A90801D7402F0D2B57FC8120E507FC8
:1005AB00C8120E507FC8120E507FC8120E507FC853
:1005BB00120E50C2B5D2AF12092FE4FDFF120E126C
:1005CB00E4FD7F01120E12E4FD7F02120E12120BDC
:1005DB00A0E4FFFEFDFC90004F12113BC31210F57F
:1005EB00601F90004F1211121211D1060C00000067
:1005FB0001060C00000002060C00000004000006BF
:10060B000CE52C452B60C7E52B7028E52975F00A06
:10061B0084ADF0E4FF120E12E4FD7F01120E12AD59
:10062B002C7F02120E12E52C14FF7D0112000ED24C
:10063B00B5809BE52B30E496E52C14FFE4FD12000E
:10064B000EC2B58089120114C3E09FF0900040E008
:10065B009EF090006EE0FEA3E0FF900040EE8FF066
:10066B00120F9B120114900053EEF0A3EFF09000C9
:10067B005CE0FEA3E0FFFD900053E0FAA3E0C39D16
:10068B00FDEA9EFCEEC4F854F0C868FEEFC4540FAC
:10069B0048FF7853E670287602D3ED9400EC648023
:1006AB009480400990005CE475F001800FC3EC640A
:1006BB00809480500A90005C74FFF5F0120F9BC37E
:1006CB00120187500DC3E49FFFE49EFED3120187F6
:1006DB00503490006A7403F0785412116F000000CC
:1006EB0000E4F515E515C3784696501AE51512008A
:1006FB00ACE0FEA3E0FFE5151201057D02AF15127C
:10070B000E3D051580DE22908109E054E06004E087
:10071B0044E0F085C008E4FD74017E00A805088064
:10072B0005C333CE33CED8F9FFACC7ECFBEF5B6020
:10073B001C7401A805088002C333D8FCF5C78DC013
:10074B001204AAA6CFED25E0240AF8A6CE0DBD060D
:10075B00C7E4FDEDFFE5262FFFE433FE7845E67A8F
:10076B0000B50715EAB506111204AAE6FF08E690D4
:10077B00006ECFF0A3EFF080151204AAE6FE08E698
:10078B00FFE5262D1204B11204010DBD06C5E526A9
:10079B002406FFE433FE7845E6FDD3EF9D7480F825
:1007AB006E984007D209E4F526800674062526F5D7
:1007BB0026120C378508C022E4FF7846E6FEEFC30D
:1007CB009E501574552F120468E0600974552F1252
:1007DB000468E014F00F80E27853E6600116900095
:0F07EB004EE0600214F090006AE0600214F02209
:10080000C0E0C0D075D000C000758A00758CFDD2E4
:1008100083D280D2B374322537F8E6F520A2009255
:1008200082A20192B2A2029285A2039287A20492AE
:10083000B4A2059281A2069284A2079286E537149B
:10084000600B14600C2402700AC2838006C2808090
:1008500002C2B30537E537D394024003753700D29F
:10086000A0D29674352538F8E6F520A2009293A21E
:10087000019294A2029295E538146007047006C2B2
:10088000A08002C2960538E538D39401400375383C
:1008900000D000D0D0D0E0328A188B19A90775F0AB
:1008A00002E91200AFE0FEA3E0C39DF51BEE9CF54C
:1008B0001AE925E02447F8E6F51C08E6F51D75F071
:1008C00004EF9012EF1211B912111E785412112E6A
:1008D0001210CEEC4D4E4F6014AE1CAF1D7C007D4F
:1008E00050120EFE7D64120F658E1C8F1DC3E51B1A
:1008F000951DE51C12015040037F0022D3E51B9596
:1009000019E51812015040037F0122C3E51A6480E3
:10091000948040037F0222C3E49519FFE49518FEFA
:10092000C3E51B9FEE1201507F0440027F03221299
:100930000DF478457606087606E4FFFEEE25E02500
:10094000E024D6F582E43412F583740193FDAC07FC
:100950000F743F2CF8A6050EBE06E143A18043A20A
:10096000807B017D017F01120DD5E4FF120003D2CF
:10097000EE120D0075C20A75C1429081037480F0B9
:10098000D2E9C20990004F1211880000000078548B
:1009900012116F00000000E4F528783EF690003157
:1009A000F0753003F527F52BF52C22900070743389
:1009B000F0AFB6BF6007753DFFC20B8048EF6480A3
:1009C0007048300B0E053D12005EF583120E7BF56C
:1009D000B58047E53DB4FF2085B53CE53C75F003A7
:1009E000A424B8F582E43413F5831211C58B398A37
:1009F0003A893BE4F53D800D12005E758300E5B554
:100A0000120EDC053D43B1048010BFA80D12005E3C
:100A1000758300120E7BF5B5D20B43B7012290808F
:100A2000037402F0908000F090801BF0908002F040
:100A300090801AF0908005F0908007F090801CF074
:100A4000908001F0908004F0908006F0D283D280F4
:100A5000D2B3C282C2B2C285C287C2B4C281C284CA
:100A6000C286908010F090800EF090800BF0908005
:100A70000CF090800DF0C2A0C296C293C294C295B1
:100A8000E4F537F538120046020046E4F515E515A1
:100A9000C378459650531200B5C083C082E0FAA3D4
:100AA000E0FBE530FD7C00AF03AE02120F10C3EB9C
:100AB0009FFFEA9ED082D083F0A3EFF09000421215
:100AC00000B8E0FEA3E0FF1200B5EE8FF0120F9B1E
:100AD000E530FD7C001200B512011CE5151200E3A3
:100AE000EEF0A3EFF0051580A522C0E0C0F0C083B2
:100AF000C082C0D075D000C000C001C002C003C019
:100B000004C005C006C007E5EE30E21475EE04121D
:100B10000D2FE52F452E6008E52F152F7002152E9D
:100B2000E5EE30E10675EE021207C3D007D006D01D
:100B300005D004D003D002D001D000D0D0D082D0D4
:100B400083D0F0D0E0328B188A19891AE4120ECAC9
:100B5000F51CF51BE51B12041012111E90004F121C
:100B6000113B12045C6031AB18AA19A91A74011266
:100B70000EA8120E62D394025025E51B90134493E5
:100B8000FFE92401F9E43AFAAE1C051CEE7C0029C9
:100B9000F9EC3AFAEF020ECA051BE51BB406B522C2
:100BA000783EE61460080470401204BB803B3009B4
:100BB00038C209AF230523EFD394644012E4F52330
:100BC0000529E52975F00A84ADF0E4FF120E121232
:100BD0000650120A8B90006AE0700BD20AE5286476
:100BE0000260031201BB120BEC0202DB783EE690BE
:100BF000005BF07846E690006DF0E4FF7846E6FE94
:100C0000EFC39E5031EF25E02447F8E6FC08E6FDEF
:100C1000EF25E02401F582E43400F583ECF0A3ED48
:100C2000F0743F2FF8E6FE74642FF582E43400F58B
:100C300083EEF00F80C622E4FFEFC39406503EEF30
:100C4000FDE5262DFDE433FC7845E6FBC3ED9B7402
:100C500080F86C9840168FC075C455EF04FEEEC343
:100C6000940650198EC075C4400E80F28FC0E526E0
:100C70002F243FF8E6044440F5C40F80BC43C180F4
:100C800022C0E0C0F0C083C082C0D075D000C000D8
:100C9000C001C002C003C004C005C006C007E5B75C
:100CA00030E0031209ABD007D006D005D004D00342
:100CB000D002D001D000D0D0D082D083D0F0D0E00C
:100CC00032C0E0C0F0C083C082C0D075D000C00088
:100CD000C001C002C003C004C005C006C007E5C70C
:100CE0006003120712D007D006D005D004D003D07D
:100CF00002D001D000D0D0D082D083D0F0D0E0326A
:100D00009080117403F0E4FF7845E6FEEFC39E5037
:100D10001D743F2FF8E675F003A4244AF582E434ED
:100D200013F5831211C57404120ECA0F80DA2290D3
:100D30000000E004F0E0C394044021E4F0FF7845B3
:100D4000E6FEEFC39E5015745E2F120422E0600988
:100D5000745E2F120422E014F00F80E222C3EF9D94
:100D6000FFEE9CFED3EF9BEA6480F8EE648098501F
:100D700017C3E49BFDE49AFCC3EF9DEC6480F8EE9E
:100D800064809840037F01227F0022EFC3940240D9
:100D900022EFD3940A501CE4F5A3EF24FE3333333F
:100DA00054F84480F5ADE5AD30E0FBE5A254F844DD
:100DB00004F5A222EF7803C333CE33CED8F9FFEF88
:100DC0001FAA0670011E4A600BE4FDEDC3940F508C
:100DD000EE0D80F722EFC43333335480FFE5F15436
:100DE0001F4FFFEDC4333354C04FFFEBC43354E007
:100DF0004FF5F122E4908101F09080187404F09096
:100E00008019F075B1C475B265E4F5B4D2EC43F85D
:100E10001022EFD394025011ED9425500CED901355
:100E20008693FE74322FF8A60622E58954FC44010D
:100E3000F589E4F58A758CFDD28CD2A922ED901348
:100E40003F93FE745E2FF582E43400F583EEF022CA
:100E5000AC07AF041CEF60097F147E00120DB48054
:100E6000F122BB010689828A83E0225002E722BB7D
:100E7000FE02E32289828A83E49322BB010CE5828D
:100E800029F582E5833AF583E0225006E92582F8C8
:100E9000E622BBFE06E92582F8E222E58229F582F8
:100EA000E5833AF583E49322BB010989828A83F8BA
:100EB000E028F022500327F722BBFE05F8E328F3D1
:100EC000228A838982F8E4932822BB010689828AD8
:100ED00083F0225002F722BBFE01F322F8BB010D82
:100EE000E58229F582E5833AF583E8F0225006E9A8
:100EF0002582C8F622BBFE05E92582C8F222EF8DC5
:100F0000F0A4A8F0CF8CF0A428CE8DF0A42EFE2261
:100F1000BC000BBE0029EF8DF084FFADF022E4CCC5
:100F2000F875F008EF2FFFEE33FEEC33FCEE9DEC8E
:100F3000984005FCEE9DFE0FD5F0E9E4CEFD22EDD4
:100F4000F8F5F0EE8420D21CFEADF075F008EF2F1E
:100F5000FFED33FD4007985006D5F0F222C398FD0F
:100F60000FD5F0EA22C2D5EC30E709B2D5E4C39D33
:100F7000FDE49CFCEE30E715B2D5E4C39FFFE49E90
:100F8000FE120F10C3E49DFDE49CFC8003120F10C1
:100F900030D507C3E49FFFE49EFE22C5F0F8A3E02E
:100FA00028F0C5F0F8E582158270021583E038F06C
:100FB00022E88FF0A4CC8BF0A42CFCE98EF0A42CBA
:100FC000FC8AF0EDA42CFCEA8EF0A4CDA8F08BF006
:100FD000A42DCC3825F0FDE98FF0A42CCD35F0FC04
:100FE000EB8EF0A4FEA9F0EB8FF0A4CFC5F02ECDD0
:100FF00039FEE43CFCEAA42DCE35F0FDE43CFC22B5
:1010000075F008758200EF2FFFEE33FECD33CDCCA7
:1010100033CCC58233C5829BED9AEC99E58298402A
:101020000CF582EE9BFEED9AFDEC99FC0FD5F0D607
:10103000E4CEFBE4CDFAE4CCF9A88222B800C1B931
:101040000059BA002DEC8BF084CFCECDFCE5F0CB6F
:10105000F97818EF2FFFEE33FEED33FDEC33FCEBA8
:1010600033FB10D703994004EB99FB0FD8E5E4F963
:10107000FA227818EF2FFFEE33FEED33FDEC33FC50
:10108000C933C910D7059BE99A4007EC9BFCE99A44
:10109000F90FD8E0E4C9FAE4CCFB2275F010EF2F89
:1010A000FFEE33FEED33FDCC33CCC833C810D70789
:1010B0009BEC9AE899400AED9BFDEC9AFCE899F8C4
:1010C0000FD5F0DAE4CDFBE4CCFAE4C8F922EF5B0B
:1010D000FFEE5AFEED59FDEC58FC22EF4BFFEE4AB5
:1010E000FEED49FDEC48FC22CFF4CFCEF4CECDF49A
:1010F000CDCCF4CC22EB9FF5F0EA9E42F0E99D4284
:10110000F0E89C45F022E6FC08E6FD08E6FE08E66D
:10111000FF22E0FCA3E0FDA3E0FEA3E0FF22E493B6
:10112000FC740193FD740293FE740393FF22E6FBAB
:1011300008E6F908E6FA08E6CBF822E0F8A3E0F9B9
:10114000A3E0FAA3E0FB22E493F8740193F974029C
:1011500093FA740393FB22ECF608EDF608EEF6081A
:10116000EFF622ECF0A3EDF0A3EEF0A3EFF022D027
:1011700083D082E493F608740193F608740293F620
:1011800008740393F6740473A8828583F0D083D027
:101190008212119F12119F12119F12119FE473E48A
:1011A00093A3C583C5F0C583C8C582C8F0A3C58312
:1011B000C5F0C583C8C582C822A42582F582E5F0A2
:1011C0003583F58322E493FB740193FA740293F957
:1011D00022D083D082E4937012740193700DA3A384
:1011E00093F8740193F5828883E4737402936C70AE
:1011F000127403936D700C7404936E7006740593EF
:101200006F60DDA3A3A3A3A3A380CAEC8EF0A4CC3C
:10121000C5F0CCCDF8EFA4CEC5F02DFDE43CFCE844
:10122000A42EC8C5F03DFDE43CFCEFA4FFE5F0288A
:10123000FEE43DFDE43CFC22787FE4F6D8FD7581B8
:101240005702127F02058BE493A3F8E493A34003B3
:10125000F68001F208DFF48029E493A3F854072410
:101260000CC8C333C4540F4420C8834004F45680D0
:101270000146F6DFE4800B01020408102040809054
:1012800012C4E47E019360BCA3FF543F30E50954CF
:101290001FFEE493A360010ECF54C025E060A84078
:1012A000B8E493A3FAE493A3F8E493A3C8C582C86F
:1012B000CAC583CAF0A3C8C582C8CAC583CADFE944
:1012C000DEE780BE013100410070334100000001C3
:1012D000220001230000000000A0000101400002E4
:1012E000008C0007008200080190000900C800007F
:1012F00000000100000002000000040000000800DF
:1013000000001000000020000000400000008000ED
:1013100000010000000200000004000000080000BE
:1013200000100000002000000040000000800000CD
:10133000010000000200000004000000080000029C
:1013400032321E1E040506010203018008018009D5
:1013500001800A01800B01800C01800D01800E01CB
:10136000800F01801F01801E01801D01801C0180F3
:1013700007018006018005018004018003018002CD
:101380000180010180003F065B4F666D7D077F6F26
:10139000777C395E797100000000000000000000D9
:1013A0000000000000000000000000000101010238
:1013B000010400040002000101007001005B010053
:1013C0006D01005C01005301004F01001901003361
:0613D0000000470100646B
:00000001FF
