:060000000211BC8FED228D
:10000B00020800EF25E0242DF582E43413F583E498
:10001B0093FEEF25E0242EF582E43413F583E4936D
:10002B00FFED600874332EF8E64FF62274332EF88A
:07003B00E6FEEFF45EF62281
:10004300020BC07F037830E4F608DFFC7F027833CD
:06005300E4F608DFFC22C8
:0D005B00020B80AB37AA38A939853B822201
:10006B00020AD390002DE0AD287C002DFFEC33FE6F
:10007B00EF25E0FFEE33FE740E2FF58274003EF594
:10008B0083E022FAA3E0FBED2500FFEC33FEEF2526
:10009B00E0FFEE33FE742E2FF58274003EF583E005
:1000AB002290001A75F002E51502113DEF75F00272
:1000BB0090000E02113D90126F93FCFFEDC39FFF5A
:1000CB00E49400FEEF780522FFECFDC374809DFDE8
:1000DB00E49400FC020F278FC0EFFDE5252DFDE416
:1000EB0033FC74262DF58274003CF583E004444008
:1000FB00F5C40F22EF75F00290004B02113DD3EDCA
:10010B009FEE6480F8EC64809822FFC3EB9FFFEABC
:10011B009E90006DF0A3EFF0EDFF90006DE48FF07B
:10012B00020F5DEFFDE5252DFDE433FC90003AE079
:10013B00FBC3ED9B7480F86C9822E52EFD7C009040
:10014B00003CE0FEA3E0FF020ED275F00212113D5F
:10015B00EEF0A3EFF022E0FEA3E0FF7D0F7C001298
:10016B000EC07D6422E51A9FEE6480F8E519648069
:10017B009822FFC374209FFFE49400FE120EC0EF81
:10018B00780622AD03AC02FEA3E0FF02118FED75E2
:10019B00F004A4FF90006DE5F0F0A3EFF0229012B5
:1001AB006F93FFEDC39F22E500C313FEE50013FF22
:1001BB00C3E5009F22AC00AD00120ED2AD0722901A
:1001CB00006DE0FAA3E0FBAE02780222C3E49FFFCE
:1001DB00E49EFE22FEA3E02BFFEE3AFEC3EF22FECF
:1001EB00A3E0FBAA06E4F9F82290006DE0FEA3E081
:1001FB00780222AC00AD00120ED2AD0722E4F52935
:10020B00F52AFB7A007915120B2FE5267024E515DC
:10021B0070026110B4010B7523008516247526013D
:10022B008008E515B4020312049C85232985242A32
:10023B008052E5266401706BE51564017039E51693
:10024B00B52422E4B5231EE52D452C600261102058
:10025B000808D208E52344408004E5234420F5290F
:10026B0085242A41F2E523200804441080024430FF
:10027B00F52985242A610DE515B4021112049C851C
:10028B002329F52AC208752C00752DFA22E5157065
:10029B0074E523200804441080024430F52985249A
:1002AB002A805FE5266402705CE5156402703FE509
:1002BB001675F020A4B5240BE5F0B523067E007F60
:1002CB000180047E007F00EF45174E6038E52D4519
:1002DB002C7032200808D208E52344408004E52323
:1002EB004420F52985242A752C00752D4622E51509
:1002FB007013E523200804441080024430F529854F
:10030B00242AE4F52622E4F51590004AE0FFE515D2
:10031B00C39F40028100120465AF151208988F1617
:10032B00120484120470AF151208988F17E5176426
:10033B00026008E51764036002C20AE5167060E507
:10034B001770441204381204547028120448E060E9
:10035B000261FC9000581210C81204381210F012EF
:10036B00109D1204B9120490743CF01204487403EB
:10037B00F0807E1204487403F0120490E070721245
:10038B0004321204B0804D120438120454600E1261
:10039B000448E0705C1204321204B0804A8048E5D5
:1003AB0017700712040DE4FD80421204CB600A1291
:1003BB0004BF1204187D028033120465120484F505
:1003CB0083E0FAA3E0FBAF15120C6DEF601912047A
:1003DB0048E0701D12040D1204841204DA1204BFDB
:1003EB0012042A7D02800512040DAD17AF15120DF4
:1003FB00FF051561141204CB600475270122E4F587
:10040B002722E51525E0242EF582E43400F583E060
:10041B00FEA3E0FFE51525E02401F582E43400F5A9
:10042B0083EEF0A3EFF0229000581210E4E51525AF
:10043B00E025E02470F582E43412F58322746625FE
:10044B0015F582E43400F583221210D49000581273
:10045B0010E4121090EC4D4E4F22E51525E02401CF
:10046B00F582E43400F583E0FCA3E0FD22E51525DD
:10047B00E0243EF582E4340022E51525E0242EF538
:10048B0082E4340022745E2515F582E43400F58392
:10049B0022E51675F020A4FFE5F0F523EF4517F5DF
:1004AB0024752602221210D41210AA12109090005A
:1004BB0058021100E51525E0240EF582E4340022E4
:1004CB00E4FFFEFDFC9000581210E4C30210B7F5D8
:1004DB0083E0FEA3E0FF22ED25E02409F822900043
:1004EB002CE0700FF52B120CFA90002C7401F075A8
:1004FB0022322290002CE064016002A1B720090295
:10050B00A1B7C2091522E5226002A1B4E4781DF659
:10051B0090006CF0F51590003AE0FFE515C39F5085
:10052B0063E51525E025E02459F582E43412F583C3
:10053B00E493FE740193FFE51525E0244BF582E46B
:10054B00340012042A7D02AF15120DFF120478122B
:10055B000470AF2E7E00120EC0E51525E0241AF5AF
:10056B0082E4340012042A1204781204DAE515121C
:10057B0004C112042A1204781204DAE515120421BC
:10058B000515809290006FE0FCA3E0FD900064ECF9
:10059B00F0A3EDF0AF2E7E00120EC090003CEEF0FB
:1005AB00A3EFF090000D7401F0120CFA221201452A
:1005BB00C3E09FF090003CE09EF090006FE0FEA344
:1005CB00E0FF90003CEE8FF0120F5D1201459000A2
:1005DB005CEEF0A3EFF0900064E0FEA3E0FFFD9073
:1005EB00005CE0FAA3E0C39DFDEA9EFCEEC4F85468
:1005FB00F0C868FEEFC4540F48FF781DE6702876EC
:10060B0002D3ED9400EC648094804009900064E484
:10061B0075F001800FC3EC64809480500A900064E5
:10062B0074FFF5F0120F5DC312010A50081201D7C7
:10063B00120109503E90006C7403F0900058121197
:10064B000C00000000E4F51590004AE0FFE515C32F
:10065B009F5020E5151200B8E0FEA3E0FF75F002F5
:10066B00E5159000011201587D02AF15120DFF0523
:10067B001580D522908109E030E704E04480F090AA
:10068B008109E030E604E04440F0908109E030E578
:10069B0004E04420F085C008E4FD74017E00A80549
:1006AB00088005C333CE33CED8F9FFACC7ECFBEFD4
:1006BB005B601C7401A805088002C333D8FCF5C726
:1006CB008DC01204E2A6CFED25E0240AF8A6CE0DCC
:1006DB00BD06C7E4FDEDFFE5252FFFE433FE9000DB
:1006EB003AE07A00B50715EAB506111204E2E6FF07
:1006FB0008E690006FCFF0A3EFF080151204E2E64E
:10070B00FE08E6FFE5252D12047A12042A0DBD061C
:10071B00C4E5252406FFE433FE90003AE0FDD3EF59
:10072B009D7480F86E984005D209E4800474062508
:10073B0025F525120D288508C0227F03120D5412B2
:10074B000999120DEC90801D7402F0D2B57FC8127E
:10075B000E127FC8120E127FC8120E127FC8120E15
:10076B00127FC8120E12C2B5D2AF12091CE4FDFFE4
:10077B00120DD4E4FD7F01120DD4E4FD7F02120DA6
:10078B00D4120CCCE4FFFEFDFC9000581210E4C315
:10079B001210B7601F9000581210C812115507BFE6
:1007AB000000000107BF0000000207BF00000004AB
:1007BB00000007BFE52A452960C7E5297020FDFF2A
:1007CB00120DD4E4FD7F01120DD4AD2A7F02120D60
:1007DB00D4E52A14FF7D0112000ED2B580A3E529C2
:1007EB0030E49EE52A14FFE4FD12000EC2B58091A1
:10080000C0E0C0D075D000C000758A00758CFDD2E4
:1008100083D280D2B374302535F8E6F520A2009259
:1008200082A20192B2A2029285A2039287A20492AE
:10083000B4A2059281A2069284A2079286E535149D
:10084000600B14600C2402700AC2838006C2808090
:1008500002C2B30535E535D394024003753500D2A5
:10086000A0D29674332536F8E6F520A2009293A222
:10087000019294A2029295E536146007047006C2B4
:10088000A08002C2960536E536D394014003753642
:1008900000D000D0D0D0E0328F181200B7E0FEA315
:1008A000E0C39DF51AEE9CF5191200FFE0F51BA3BD
:1008B000E0F51C75F004EF90127012113D1210D487
:1008C0009000581210E4121090EC4D4E4F6010AE94
:1008D0001BAF1C7D50120168120F278E1B8F1CE569
:1008E00018120100120161120ED2C3E51A951CE51F
:1008F0001B12017440037F0022D312017040037F5A
:100900000122C3E5196480948040037F0222120112
:10091000D7C31201707F0440027F0322120D999009
:10092000003A7406F090004AF0E4FFFEEE25E02560
:10093000E02457F582E43412F583740193FDAC078B
:100940000F74262CF582E43400F583EDF00EBE061C
:10095000DB43A18043A2807B017D017F01120D7AE0
:10096000E4FF120003D2EE120C3775C14275C20AC1
:10097000908103747BF0D2E9C20990005812110CE7
:1009800000000000E4F52790000DF090002CF075B9
:100990002E03F526F529F52A229080037402F090A3
:1009A0008000F090801BF0908002F090801AF09010
:1009B0008005F0908007F090801CF0908001F0900E
:1009C0008004F0908006F0D283D280D2B3C282C27B
:1009D000B2C285C287C2B4C281C284C2869080106E
:1009E000F090800EF090800BF090800CF090800DD5
:1009F000F0C2A0C296C293C294C295E4F535F53612
:100A0000120046020046AFB6BF6007753BFFC20B3F
:100A10008048EF64807048300B0E053B12005EF595
:100A200083120E3DF5B58047E53BB4FF2085B53A0E
:100A3000E53A75F003A42439F582E43413F5831202
:100A400011498B378A388939E4F53B800D12005EF5
:100A5000758300E5B5120E9E053B43B1048010BFBF
:100A6000A80D12005E758300120E3DF5B5D20B4342
:100A7000B70122E4F51590003AE0FFE515C39F5059
:100A8000511200ACC083C082E0FAA3E0FBE52EFD6A
:100A90007C00AF03AE02120ED2C3EB9FFFEA9ED0E2
:100AA00082D083F0A3EFF090003E1200AFE0FEA3EF
:100AB000E0FF1200ACEE8FF0120F5DE52EFD7C0022
:100AC0001200AC12014DE51590002E1201550515CE
:100AD00080A422C0E0C0F0C083C082C0D075D00026
:100AE000C000C001C002C003C004C005C006C007EA
:100AF000E5EE30E21475EE04120C9DE52D452C60F8
:100B000008E52D152D7002152CE5EE30E10675EE89
:100B100002120BFFD007D006D005D004D003D002BC
:100B2000D001D000D0D0D082D083D0F0D0E0328BB2
:100B3000188A19891AE4120E8CF51CF51BE51B1294
:100B4000043A1204546031AB18AA19A91A7401129C
:100B50000E6A120E24D394025025E51B9012C59301
:100B6000FFE92401F9E43AFAAE1C051CEE7C0029E9
:100B7000F9EC3AFAEF020E8C051BE51BB406BE2217
:100B8000C0E0C0F0C083C082C0D075D000C000C03B
:100B900001C002C003C004C005C006C007E5B730ED
:100BA000E003120A06D007D006D005D004D003D047
:100BB00002D001D000D0D0D082D083D0F0D0E032AB
:100BC000C0E0C0F0C083C082C0D075D000C000C0FB
:100BD00001C002C003C004C005C006C007E5C7606D
:100BE0000312067FD007D006D005D004D003D00270
:100BF000D001D000D0D0D082D083D0F0D0E032E489
:100C0000FF90004AE0FEEFC39E5015745E2F120461
:100C100094E06009745E2F120494E014F00F80E1F8
:100C2000781DE6600116900057E0600214F0900015
:100C30006CE0600214F0229080117403F0E4FF90E5
:100C4000003AE0FEEFC39E502374262FF582E43471
:100C500000F583E075F003A424CBF582E43412F5AB
:100C6000831211497404120E8C0F80D3228C188DBC
:100C7000198A1A8B1B1200FF120161120ED2C3E5F2
:100C800019951BFDE518951AFC120109500C12016B
:100C9000D7C312010A40037F01227F002290000087
:100CA000E004F0E0C394044022E4F0FF90003AE056
:100CB000FEEFC39E501574662F12044CE060097459
:100CC000662F12044CE014F00F80E12290000DE03A
:100CD0001460080470211204E9801C300919C2094B
:100CE0001205B8120A7390006CE0700BD20AE52767
:100CF00064026003120311020208E4F525FFEFC34A
:100D00009406502012012E40168FC075C455EF0472
:100D1000FEEEC39406500D8EC075C4400E80F212D4
:100D200000E280DA43C18022E4FFEFC39406502042
:100D300012012E40168FC075C455EF04FEEEC39409
:100D400006500D8EC075C4400E80F21200E280DAAB
:100D500043C18022EFC39402401FEFD3940A50197D
:100D6000EF24FE33333354F84480F5ADE5AD30E085
:100D7000FBE5A254F84404F5A222EFC43333335404
:100D800080FFE5F1541F4FFFEDC4333354C04FFFD4
:100D9000EBC43354E04FF5F122E4908101F09080F0
:100DA000187404F0908019F075B1C475B265E4F55B
:100DB000B4D2EC43F810227C007D03120EC0EF1F6A
:100DC000AC0670011E4C600BE4FBEBC3940F50EEBD
:100DD0000B80F722EFD394025011ED9425500CEDC7
:100DE00090130793FE74302FF8A60622E58954FC71
:100DF0004401F589E4F58A758CFDD28CD2A922EDE7
:100E00009012C093FE74662FF582E43400F583EEF1
:100E1000F022AA07AF021AEF60097F147E00120DBC
:100E2000B780F122BB010689828A83E0225002E763
:100E300022BBFE02E32289828A83E49322BB010C57
:100E4000E58229F582E5833AF583E0225006E9251B
:100E500082F8E622BBFE06E92582F8E222E5822935
:100E6000F582E5833AF583E49322BB010989828AFE
:100E700083F8E028F022500327F722BBFE05F8E3B1
:100E800028F3228A838982F8E4932822BB01068909
:100E9000828A83F0225002F722BBFE01F322F8BBC4
:100EA000010DE58229F582E5833AF583E8F02250C9
:100EB00006E92582C8F622BBFE05E92582C8F22292
:100EC000EF8DF0A4A8F0CF8CF0A428CE8DF0A42E46
:100ED000FE22BC000BBE0029EF8DF084FFADF02296
:100EE000E4CCF875F008EF2FFFEE33FEEC33FCEEA8
:100EF0009DEC984005FCEE9DFE0FD5F0E9E4CEFD9B
:100F000022EDF8F5F0EE8420D21CFEADF075F0086D
:100F1000EF2FFFED33FD4007985006D5F0F222C3C6
:100F200098FD0FD5F0EA22C2D5EC30E709B2D5E43E
:100F3000C39DFDE49CFCEE30E715B2D5E4C39FFFF2
:100F4000E49EFE120ED2C3E49DFDE49CFC800312DD
:100F50000ED230D507C3E49FFFE49EFE22C5F0F811
:100F6000A3E028F0C5F0F8E582158270021583E051
:100F700038F022E88FF0A4CC8BF0A42CFCE98EF0A2
:100F8000A42CFC8AF0EDA42CFCEA8EF0A4CDA8F0F1
:100F90008BF0A42DCC3825F0FDE98FF0A42CCD35B5
:100FA000F0FCEB8EF0A4FEA9F0EB8FF0A4CFC5F01F
:100FB0002ECD39FEE43CFCEAA42DCE35F0FDE43C18
:100FC000FC2275F008758200EF2FFFEE33FECD3363
:100FD000CDCC33CCC58233C5829BED9AEC99E582AA
:100FE00098400CF582EE9BFEED9AFDEC99FC0FD536
:100FF000F0D6E4CEFBE4CDFAE4CCF9A88222B80026
:10100000C1B90059BA002DEC8BF084CFCECDFCE5F0
:10101000F0CBF97818EF2FFFEE33FEED33FDEC3314
:10102000FCEB33FB10D703994004EB99FB0FD8E599
:10103000E4F9FA227818EF2FFFEE33FEED33FDECE2
:1010400033FCC933C910D7059BE99A4007EC9BFCD8
:10105000E99AF90FD8E0E4C9FAE4CCFB2275F01064
:10106000EF2FFFEE33FEED33FDCC33CCC833C81089
:10107000D7079BEC9AE899400AED9BFDEC9AFCE8B7
:1010800099F80FD5F0DAE4CDFBE4CCFAE4C8F92204
:10109000EF5BFFEE5AFEED59FDEC58FC22EF4BFFE3
:1010A000EE4AFEED49FDEC48FC22CFF4CFCEF4CE63
:1010B000CDF4CDCCF4CC22EB9FF5F0EA9E42F0E9E2
:1010C0009D42F0E89C45F022E0FCA3E0FDA3E0FE99
:1010D000A3E0FF22E493FC740193FD740293FE7479
:1010E0000393FF22E0F8A3E0F9A3E0FAA3E0FB22D8
:1010F000E493F8740193F9740293FA740393FB2256
:10110000ECF0A3EDF0A3EEF0A3EFF022A88285832C
:10111000F0D083D082121123121123121123121145
:1011200023E473E493A3C583C5F0C583C8C582C80F
:10113000F0A3C583C5F0C583C8C582C822A4258293
:10114000F582E5F03583F58322E493FB740193FA8D
:10115000740293F922D083D082E4937012740193C5
:10116000700DA3A393F8740193F5828883E47374DC
:1011700002936C70127403936D700C7404936E7010
:10118000067405936F60DDA3A3A3A3A3A380CAEC99
:101190008EF0A4CCC5F0CCCDF8EFA4CEC5F02DFDDB
:1011A000E43CFCE8A42EC8C5F03DFDE43CFCEFA403
:1011B000FFE5F028FEE43DFDE43CFC22787FE4F608
:1011C000D8FD75813B021203020745E493A3F8E4BE
:1011D00093A34003F68001F208DFF48029E493A38F
:1011E000F85407240CC8C333C4540F4420C88340A8
:1011F00004F456800146F6DFE4800B010204081077
:10120000204080901248E47E019360BCA3FF543FCD
:1012100030E509541FFEE493A360010ECF54C025AE
:10122000E060A840B8E493A3FAE493A3F8E493A39E
:10123000C8C582C8CAC583CAF0A3C8C582C8CAC502
:1012400083CADFE9DEE780BE012F00410071334130
:101250000000000122000000000034000100340002
:1012600002002D00070023000800280009003700B5
:10127000000000010000000200000004000000085F
:10128000000000100000002000000040000000806E
:10129000000001000000020000000400000008003F
:1012A000000010000000200000004000000080004E
:1012B000000100000002000000040000000800001F
:1012C000034B4B4B320405060102030180080180E9
:1012D0000901800A01800B01800C01800D01800E44
:1012E00001800F01801F01801E01801D01801C01F3
:1012F00080070180060180050180040180030180D0
:10130000020180010180003F065B4F666D7D077F13
:101310006F777C395E7971000000000000000000EA
:1013200000000000000000000000000000010101BA
:1013300002010400040002000101007101000D011E
:10134000004A01006401005C01005801000E010028
:071350002E01004B010026F5
:00000001FF
