:060000000212278FED2221
:10000B00020758EF25E02489F582E43413F583E4E5
:10001B0093FEEF25E0248AF582E43413F583E49311
:10002B00FFED600874332EF8E64FF62274332EF88A
:07003B00E6FEEFF45EF62281
:10004300020C2A7F037830E4F608DFFC7F02783362
:06005300E4F608DFFC22C8
:0D005B00020BEAAB37AA38A939853B822297
:10006B00020AF190002DE0AD287C002DFFEC33FE51
:10007B00EF25E0FFEE33FE740E2FF58274003EF594
:10008B0083E022FAA3E0FBED2500FFEC33FEEF2526
:10009B00E0FFEE33FE742E2FF58274003EF583E005
:1000AB002290001A75F002E5150211A8EF75F00207
:1000BB0090000E0211A89012CB93FCFFEDC39FFF93
:1000CB00E49400FEEF780522FFECFDC374809DFDE8
:1000DB00E49400FC020F928FC0EFFDE5252DFDE4AB
:1000EB0033FC74262DF58274003CF583E004444008
:1000FB00F5C40F22EF75F00290004B0211A8D3ED5F
:10010B009FEE6480F8EC64809822FFC3EB9FFFEABC
:10011B009E90006DF0A3EFF0EDFF90006DE48FF07B
:10012B00020FC8EFFDE5252DFDE433FC90003AE00E
:10013B00FBC3ED9B7480F86C9822E52EFD7C009040
:10014B00003CE0FEA3E0FF020F3D75F0021211A888
:10015B00EEF0A3EFF022E0FEA3E0FF7D0F7C001298
:10016B000F2B7D6422E51A9FEE6480F8E5196480FD
:10017B009822FFC374209FFFE49400FE120F2BEF15
:10018B00780622AD03AC02FEA3E0FF0211FAED7577
:10019B00F004A4FF90006DE5F0F0A3EFF0229012B5
:1001AB00CB93FFEDC39F22E500C313FEE50013FFC6
:1001BB00C3E5009F22AC00AD00120F3DAD072290AE
:1001CB00006DE0FAA3E0FBAE02780222C3E49FFFCE
:1001DB00E49EFE22FEA3E02BFFEE3AFEC3EF22FECF
:1001EB00A3E0FBAA06E4F9F82290006DE0FEA3E081
:1001FB00780222AC00AD00120F3DAD0722E4F529C9
:10020B00F52AFB7A007915120B4DE5267024E515BE
:10021B0070026110B4010B7523008516247526013D
:10022B008008E515B4020312049C85232985242A32
:10023B008052E5266401706BE51564017039E51693
:10024B00B52422E4B5231EE52D452C600261102058
:10025B000808D208E52344408004E5234420F5290F
:10026B0085242A41F2E523200804441080024430FF
:10027B00F52985242A610DE515B4021112049C851C
:10028B002329F52AC208752C00752DFA22E5157065
:10029B0074E523200804441080024430F52985249A
:1002AB002A805FE5266402705CE5156402703FE509
:1002BB001675F020A4B5240BE5F0B523067E007F60
:1002CB000180047E007F00EF45174E6038E52D4519
:1002DB002C7032200808D208E52344408004E52323
:1002EB004420F52985242A752C00752D4622E51509
:1002FB007013E523200804441080024430F529854F
:10030B00242AE4F52622E4F51590004AE0FFE515D2
:10031B00C39F40028100120465AF151208B68F16F9
:10032B00120484120470AF151208B68F17E5176408
:10033B00026008E51764036002C20AE5167060E507
:10034B001770441204381204547028120448E060E9
:10035B000261FC90005812113312043812115B1217
:10036B0011081204B9120490743CF012044874037F
:10037B00F0807E1204487403F0120490E070721245
:10038B0004321204B0804D120438120454600E1261
:10039B000448E0705C1204321204B0804A8048E5D5
:1003AB0017700712040DE4FD80421204CB600A1291
:1003BB0004BF1204187D028033120465120484F505
:1003CB0083E0FAA3E0FBAF15120CD7EF6019120410
:1003DB0048E0701D12040D1204841204DA1204BFDB
:1003EB0012042A7D02800512040DAD17AF15120EF3
:1003FB006A051561141204CB600475270122E4F51C
:10040B002722E51525E0242EF582E43400F583E060
:10041B00FEA3E0FFE51525E02401F582E43400F5A9
:10042B0083EEF0A3EFF02290005812114FE5152543
:10043B00E025E024CCF582E43412F58322746625A2
:10044B0015F582E43400F5832212113F9000581207
:10045B00114F1210FBEC4D4E4F22E51525E02401F8
:10046B00F582E43400F583E0FCA3E0FD22E51525DD
:10047B00E0243EF582E4340022E51525E0242EF538
:10048B0082E4340022745E2515F582E43400F58392
:10049B0022E51675F020A4FFE5F0F523EF4517F5DF
:1004AB00247526022212113F1211151210FB900017
:1004BB005802116BE51525E0240EF582E434002279
:1004CB00E4FFFEFDFC90005812114FC3021122F500
:1004DB0083E0FEA3E0FF22ED25E02409F8221201C0
:1004EB0045C3E09FF090003CE09EF090006FE0FE73
:1004FB00A3E0FF90003CEE8FF0120FC81201459065
:10050B00005CEEF0A3EFF0900064E0FEA3E0FFFDD3
:10051B0090005CE0FAA3E0C39DFDEA9EFCEEC4F8FC
:10052B0054F0C868FEEFC4540F48FF781DE67028DE
:10053B007602D3ED9400EC648094804009900064C3
:10054B00E475F001800FC3EC64809480500A900036
:10055B006474FFF5F0120FC8C312010A50081201A0
:10056B00D7120109503E90006C7403F090005812A2
:10057B00117700000000E4F51590004AE0FFE51547
:10058B00C39F5033E5151200B8E0FEA3E0FF75F0F2
:10059B0002E5159000011201587D02AF15120E6A8B
:1005AB00051580D590005CE0FEA3E0FF900064E0B1
:1005BB00FCA3E0FD120B9E2290002CE0700FF52B9C
:1005CB00120D6490002C7401F07522322290002CD5
:1005DB00E064016002C191200902C191C209152298
:1005EB00E5226002C18EE4781DF690006CF0F515E3
:1005FB0090003AE0FFE515C39F5063E51525E02514
:10060B00E024B5F582E43412F583E493FE74019390
:10061B00FFE51525E0244BF582E4340012042A7D16
:10062B0002AF15120E6A120478120470AF2E7E0000
:10063B00120F2BE51525E0241AF582E43400120481
:10064B002A1204781204DAE5151204C112042A12D4
:10065B0004781204DAE51512042105158092900036
:10066B006FE0FCA3E0FD900064ECF0A3EDF0AF2E87
:10067B007E00120F2B90003CEEF0A3EFF090000DDC
:10068B007401F0120D6422908109E030E704E0441C
:10069B0080F0908109E030E604E04440F09081095D
:1006AB00E030E504E04420F085C008E4FD74017EF1
:1006BB0000A805088005C333CE33CED8F9FFACC7ED
:1006CB00ECFBEF5B601C7401A805088002C333D8F8
:1006DB00FCF5C78DC01204E2A6CFED25E0240AF885
:1006EB00A6CE0DBD06C7E4FDEDFFE5252FFFE433D8
:1006FB00FE90003AE07A00B50715EAB50611120430
:10070B00E2E6FF08E690006FCFF0A3EFF080151242
:10071B0004E2E6FE08E6FFE5252D12047A12042A10
:10072B000DBD06C4E5252406FFE433FE90003AE038
:10073B00FDD3EF9D7480F86E984005D209E48004D8
:10074B0074062525F525120D928508C022C0E0C040
:10075B00D075D000C000758A00758CFDD283D28015
:10076B00D2B374302535F8E6F520A2009282A201AF
:10077B0092B2A2029285A2039287A20492B4A2051E
:10078B009281A2069284A2079286E53514600B141F
:10079B00600C2402700AC2838006C2808002C2B33E
:1007AB000535E535D394024003753500D2A0D296BA
:1007BB0074332536F8E6F520A2009293A2019294A9
:1007CB00A2029295E536146007047006C2A080025F
:1007DB00C2960536E536D394014003753600D0003A
:1007EB00D0D0D0E032012F00410071334100000026
:0407FB0001220000D7
:100800007F08120DBE1209B7120E5790801D740298
:10081000F0D2B57FC8120E7D7FC8120E7D7FC81240
:100820000E7D7FC8120E7D7FC8120E7DC2B5D2AF7D
:1008300012093AE4FDFF120E3FE4FD7F01120E3F64
:10084000E4FD7F02120E3F120D36E4FFFEFDFC9028
:10085000005812114FC3121122601F90005812113C
:10086000331211C0087A00000001087A000000026B
:10087000087A000000040000087AE52A452960C7CC
:10088000E5297020FDFF120E3FE4FD7F01120E3FAF
:10089000AD2A7F02120E3FE52A14FF7D0112000EE1
:1008A000D2B580A3E52930E49EE52A14FFE4FD12C9
:1008B000000EC2B580918F181200B7E0FEA3E0C30E
:1008C0009DF51AEE9CF5191200FFE0F51BA3E0F56B
:1008D0001C75F004EF9012CC1211A812113F900079
:1008E0005812114F1210FBEC4D4E4F6010AE1BAF63
:1008F0001C7D50120168120F928E1B8F1CE518127E
:100900000100120161120F3DC3E51A951CE51B128F
:10091000017440037F0022D312017040037F012243
:10092000C3E5196480948040037F02221201D7C37B
:100930001201707F0440027F0322120E2490003ABD
:100940007406F090004AF0E4FFFEEE25E025E02476
:10095000B3F582E43412F583740193FDAC070F7490
:10096000262CF582E43400F583EDF00EBE06DB4361
:10097000A18043A2807B017D017F01120E05E4FF6F
:10098000120003D2EE120CA175C14275C20A908109
:1009900003746BF0D2E9C20990005812117700007D
:1009A0000000E4F52790000DF090002CF0752E0368
:1009B000F526F529F52A229080037402F090800034
:1009C000F090801BF0908002F090801AF0908005EB
:1009D000F0908007F090801CF0908001F0908004EF
:1009E000F0908006F0D283D280D2B3C282C2B2C26B
:1009F00085C287C2B4C281C284C286908010F09042
:100A0000800EF090800BF090800CF090800DF0C282
:100A1000A0C296C293C294C295E4F535F536120091
:100A200046020046AFB6BF6007753BFFC20B804869
:100A3000EF64807048300B0E053B12005EF58312A8
:100A40000EA8F5B58047E53BB4FF2085B53AE53AF9
:100A500075F003A42495F582E43413F5831211B4E0
:100A60008B378A388939E4F53B800D12005E758337
:100A700000E5B5120F09053B43B1048010BFA80D76
:100A800012005E758300120EA8F5B5D20B43B701B4
:100A900022E4F51590003AE0FFE515C39F5051128E
:100AA00000ACC083C082E0FAA3E0FBE52EFD7C0031
:100AB000AF03AE02120F3DC3EB9FFFEA9ED082D080
:100AC00083F0A3EFF090003E1200AFE0FEA3E0FF42
:100AD0001200ACEE8FF0120FC8E52EFD7C00120064
:100AE000AC12014DE51590002E120155051580A49C
:100AF00022C0E0C0F0C083C082C0D075D000C0006A
:100B0000C001C002C003C004C005C006C007E5EEB6
:100B100030E21475EE04120D07E52D452C6008E552
:100B20002D152D7002152CE5EE30E10675EE021242
:100B30000C69D007D006D005D004D003D002D00174
:100B4000D000D0D0D082D083D0F0D0E0328B188AC1
:100B500019891AE4120EF7F51CF51BE51B12043A6D
:100B60001204546031AB18AA19A91A7401120ED5D7
:100B7000120E8FD394025025E51B90132193FFE9A9
:100B80002401F9E43AFAAE1C051CEE7C0029F9ECCC
:100B90003AFAEF020EF7051BE51BB406BE228E16CD
:100BA0008F178C188D19E4F51A90003AE0FFE51ABA
:100BB000C39F503575F002E51A90003E1211A8E06F
:100BC000AC18AD19120192C006C007AE16AF17AB34
:100BD00007AA06E4F9F8D007D006121069E51A90C2
:100BE000003E120155051A80C022C0E0C0F0C0834B
:100BF000C082C0D075D000C000C001C002C003C018
:100C000004C005C006C007E5B730E003120A24D0CF
:100C100007D006D005D004D003D002D001D000D038
:100C2000D0D082D083D0F0D0E032C0E0C0F0C0831A
:100C3000C082C0D075D000C000C001C002C003C0D7
:100C400004C005C006C007E5C76003120692D007BE
:100C5000D006D005D004D003D002D001D000D0D02F
:100C6000D082D083D0F0D0E032E4FF90004AE0FEA2
:100C7000EFC39E5015745E2F120494E06009745EF9
:100C80002F120494E014F00F80E1781DE660011645
:100C9000900057E0600214F090006CE0600214F0E5
:100CA000229080117403F0E4FF90003AE0FEEFC35D
:100CB0009E502374262FF582E43400F583E075F00E
:100CC00003A42427F582E43413F5831211B47404C9
:100CD000120EF70F80D3228C188D198A1A8B1B12D3
:100CE00000FF120161120F3DC3E519951BFDE518C8
:100CF000951AFC120109500C1201D7C312010A40C7
:100D0000037F01227F0022900000E004F0E0C39402
:100D1000044022E4F0FF90003AE0FEEFC39E50153D
:100D200074662F12044CE0600974662F12044CE0C4
:100D300014F00F80E12290000DE01460080470218F
:100D40001205C3801C300919C2091204E9120A9164
:100D500090006CE0700BD20AE52764026003120376
:100D600011020208E4F525FFEFC39406502012019A
:100D70002E40168FC075C455EF04FEEEC394065086
:100D80000D8EC075C4400E80F21200E280DA43C1BD
:100D90008022E4FFEFC39406502012012E40168FEC
:100DA000C075C455EF04FEEEC39406500D8EC07599
:100DB000C4400E80F21200E280DA43C18022EFC309
:100DC0009402401FEFD3940A5019EF24FE333333BB
:100DD00054F84480F5ADE5AD30E0FBE5A254F844AD
:100DE00004F5A222EF7803C333CE33CED8F9FFEF58
:100DF0001FAA0670011E4A600BE4FDEDC3940F505C
:100E0000EE0D80F722EFC43333335480FFE5F15405
:100E10001F4FFFEDC4333354C04FFFEBC43354E0D6
:100E20004FF5F122E4908101F09080187404F09065
:100E30008019F075B1C475B265D2EC43F81022EF99
:100E4000D394025011ED9425500CED90136393FE52
:100E500074302FF8A60622E58954FC4401F589E494
:100E6000F58A758CFDD28CD2A922ED90131C93FECD
:100E700074662FF582E43400F583EEF022AC07AF00
:100E8000041CEF60097F147E00120DE480F122BB88
:100E9000010689828A83E0225002E722BBFE02E338
:100EA0002289828A83E49322BB010CE58229F582A0
:100EB000E5833AF583E0225006E92582F8E622BB75
:100EC000FE06E92582F8E222E58229F582E5833AE9
:100ED000F583E49322BB010989828A83F8E028F034
:100EE00022500327F722BBFE05F8E328F3228A836A
:100EF0008982F8E4932822BB010689828A83F02242
:100F00005002F722BBFE01F322F8BB010DE5822956
:100F1000F582E5833AF583E8F0225006E92582C898
:100F2000F622BBFE05E92582C8F222EF8DF0A4A8C7
:100F3000F0CF8CF0A428CE8DF0A42EFE22BC000BA6
:100F4000BE0029EF8DF084FFADF022E4CCF875F0FF
:100F500008EF2FFFEE33FEEC33FCEE9DEC984005DE
:100F6000FCEE9DFE0FD5F0E9E4CEFD22EDF8F5F0A4
:100F7000EE8420D21CFEADF075F008EF2FFFED33AC
:100F8000FD4007985006D5F0F222C398FD0FD5F02A
:100F9000EA22C2D5EC30E709B2D5E4C39DFDE49C5A
:100FA000FCEE30E715B2D5E4C39FFFE49EFE120FBE
:100FB0003DC3E49DFDE49CFC8003120F3D30D5074A
:100FC000C3E49FFFE49EFE22C5F0F8A3E028F0C52D
:100FD000F0F8E582158270021583E038F022E88F80
:100FE000F0A4CC8BF0A42CFCE98EF0A42CFC8AF0AD
:100FF000EDA42CFCEA8EF0A4CDA8F08BF0A42DCCAF
:101000003825F0FDE98FF0A42CCD35F0FCEB8EF007
:10101000A4FEA9F0EB8FF0A4CFC5F02ECD39FEE4ED
:101020003CFCEAA42DCE35F0FDE43CFC2275F00832
:10103000758200EF2FFFEE33FECD33CDCC33CCC520
:101040008233C5829BED9AEC99E58298400CF5823B
:10105000EE9BFEED9AFDEC99FC0FD5F0D6E4CEFBAD
:10106000E4CDFAE4CCF9A88222B800C1B90059BA9B
:10107000002DEC8BF084CFCECDFCE5F0CBF97818C9
:10108000EF2FFFEE33FEED33FDEC33FCEB33FB10C3
:10109000D703994004EB99FB0FD8E5E4F9FA2278DD
:1010A00018EF2FFFEE33FEED33FDEC33FCC933C9EF
:1010B00010D7059BE99A4007EC9BFCE99AF90FD8F9
:1010C000E0E4C9FAE4CCFB2275F010EF2FFFEE3319
:1010D000FEED33FDCC33CCC833C810D7079BEC9A58
:1010E000E899400AED9BFDEC9AFCE899F80FD5F0E1
:1010F000DAE4CDFBE4CCFAE4C8F922EF5BFFEE5A68
:10110000FEED59FDEC58FC22EF4BFFEE4AFEED4997
:10111000FDEC48FC22CFF4CFCEF4CECDF4CDCCF410
:10112000CC22EB9FF5F0EA9E42F0E99D42F0E89C6C
:1011300045F022E0FCA3E0FDA3E0FEA3E0FF22E4F3
:1011400093FC740193FD740293FE740393FF22E0F9
:10115000F8A3E0F9A3E0FAA3E0FB22E493F874011A
:1011600093F9740293FA740393FB22ECF0A3EDF06D
:10117000A3EEF0A3EFF022A8828583F0D083D08283
:1011800012118E12118E12118E12118EE473E493CD
:10119000A3C583C5F0C583C8C582C8F0A3C583C5F0
:1011A000F0C583C8C582C822A42582F582E5F03542
:1011B00083F58322E493FB740193FA740293F9227A
:1011C000D083D082E4937012740193700DA3A39323
:1011D000F8740193F5828883E4737402936C70123F
:1011E0007403936D700C7404936E70067405936FA2
:1011F00060DDA3A3A3A3A3A380CAEC8EF0A4CCC5F7
:10120000F0CCCDF8EFA4CEC5F02DFDE43CFCE8A475
:101210002EC8C5F03DFDE43CFCEFA4FFE5F028FE40
:10122000E43DFDE43CFC22787FE4F6D8FD75813B8B
:1012300002126E020800E493A3F8E493A34003F6BD
:101240008001F208DFF48029E493A3F85407240C0A
:10125000C8C333C4540F4420C8834004F4568001EB
:1012600046F6DFE4800B010204081020408090075E
:10127000F0E47E019360BCA3FF543F30E509541FA6
:10128000FEE493A360010ECF54C025E060A840B8EF
:10129000E493A3FAE493A3F8E493A3C8C582C8CA6D
:1012A000C583CAF0A3C8C582C8CAC583CADFE9DE40
:1012B000E780BE00000044000100460002003C0040
:1012C0000700280008003200090044000000000167
:1012D00000000002000000040000000800000010F0
:1012E000000000200000004000000080000001001D
:1012F00000000200000004000000080000001000D0
:1013000000002000000040000000800000010000FC
:10131000000200000004000000080000034B4B4BDB
:101320003204050601020301800801800901800AD8
:1013300001800B01800C01800D01800E01800F01E6
:10134000801F01801E01801D01801C01800701801B
:1013500006018005018004018003018002018001F3
:101360000180003F065B4F666D7D077F6F777C399C
:101370005E79710000000000000000000000000025
:101380000000000000000000000101010201040053
:10139000040002000101007101000D01004A01007A
:1013A0006401005C01005801000E01002E01004B99
:0313B00001002613
:00000001FF
