:10000000020C9DC0E0C0F0C083C082C0D075D0009B
:10001000C000C001C002C003C004C005C006C007C4
:10002000E5C76003120ACCD007D006D005D004D0B3
:1000300003D002D001D000D0D0D082D083D0F0D075
:10004000E03232020003ED90131D93FE74B12FF5E0
:0900500082E43400F583EEF02295
:10005B00020042ED33333354F8FFE5DB54F04F220B
:10006B000204F0E52A45297003020259E52A852985
:10007B00F012049600C3000101840002018B0003FF
:10008B00019200040199000501A0000601A90007D7
:10009B0001BF10080221300801A7400201A740034D
:1000AB0001A7400401A7400501A7400601A740078F
:1000BB0001EF4008000002289000CBE0FEA3E0FF18
:1000CB005401FBEF54FEFFEB64015401FD120BC214
:1000DB00120ED79000CCE030E06E9000C9E4F0A394
:1000EB007432F0120B9D7B78120B8A50067B01C089
:1000FB000380047B00C003120B9D120BB87F0040E2
:10010B00027F01D0E05F6003120BDC120B9D120B20
:10011B00B84003120BDC9000C7E0FEA3E0FFD390C6
:10012B0000CAE09F9000C9E09E4005EEF0A3EFF0FF
:10013B001202B99000C7E0FEA3E0FFA3E06E7003CC
:10014B00A3E06F709E020228120B9D7B78120B8A24
:10015B0050069000C9120C09120BF04003120C0947
:10016B00120BF05004E4F0A3F01202B99000C9E0B6
:10017B007002A3E070D2020228120B914418802364
:10018B00120B914414801C120B9144108015120B0E
:10019B0091440C800E120B9144088007800A120BBD
:1001AB009144049000CB80689000CBE05403F0A303
:1001BB00E0F08069120BCEFFED54F1FDEF2401FF4F
:1001CB00EF540725E0FFE4334CFE120BC2120BCEAB
:1001DB005407C39403E494004043ED54F1FF9000A3
:1001EB00CBEC802C120ED79000CEE04404F09000A4
:1001FB00CD120BD15401FFED54FDFDEF6401540101
:10020B0025E0FFE433FEEC4EFEED4FFF9000CDEE0C
:10021B00F0A3EFF080079000CEE054FBF09000CB02
:10022B00E0FCA3E0FDECC4F854F0C8EDC4540F4857
:10023B00543FFBEC1313543F6B7001E46009E490E3
:10024B0000BFF09000BEF09000CEE04401F09000B3
:10025B00CCE030E030051CE51C7002051B9000CE95
:10026B00E030E213C3E51C9496E51B94004008E4D0
:10027B00F51BF51C120E7B9000CEE0FF20E2035421
:10028B00FBF012100E9000CCE020E01CE49000C9B3
:10029B00F0A3F0A3E05403FEA3E0120BC4FFEE5453
:1002AB00FCFEEF540F120BC4121210020C10900034
:1002BB00C9E0FAA3E0FB7DE87C037F031212DC7F2D
:1002CB00031212C01212EF7F017E0012129522BB95
:1002DB00010689828A83F0225002F722BBFE01F3CA
:1002EB0022EF8DF0A4A8F0CF8CF0A428CE8DF0A433
:1002FB002EFE22BC000BBE0029EF8DF084FFADF06B
:10030B0022E4CCF875F008EF2FFFEE33FEEC33FC54
:10031B00EE9DEC984005FCEE9DFE0FD5F0E9E4CE8A
:10032B00FD22EDF8F5F0EE8420D21CFEADF075F059
:10033B0008EF2FFFED33FD4007985006D5F0F22262
:10034B00C398FD0FD5F0EA22C2D5EC30E709B2D540
:10035B00E4C39DFDE49CFCEE30E715B2D5E4C39FEE
:10036B00FFE49EFE1202FEC3E49DFDE49CFC8003B1
:10037B001202FE30D507C3E49FFFE49EFE22C5F0B8
:10038B00F8A3E028F0C5F0F8E5821582700215831A
:10039B00E038F02275F008758200EF2FFFEE33FE88
:1003AB00CD33CDCC33CCC58233C5829BED9AEC9942
:1003BB00E58298400CF582EE9BFEED9AFDEC99FCE4
:1003CB000FD5F0D6E4CEFBE4CDFAE4CCF9A882222B
:1003DB00B800C1B90059BA002DEC8BF084CFCECD4B
:1003EB00FCE5F0CBF97818EF2FFFEE33FEED33FD84
:1003FB00EC33FCEB33FB10D703994004EB99FB0F69
:10040B00D8E5E4F9FA227818EF2FFFEE33FEED333F
:10041B00FDEC33FCC933C910D7059BE99A4007ECB7
:10042B009BFCE99AF90FD8E0E4C9FAE4CCFB2275FE
:10043B00F010EF2FFFEE33FEED33FDCC33CCC83392
:10044B00C810D7079BEC9AE899400AED9BFDEC9AF4
:10045B00FCE899F80FD5F0DAE4CDFBE4CCFAE4C86C
:10046B00F922EB9FF5F0EA9E42F0E99D42F0E89C01
:10047B0045F022A42582F582E5F03583F58322E44D
:10048B0093FB740193FA740293F922D083D082F810
:10049B00E4937012740193700DA3A393F8740193FA
:1004AB00F5828883E473740293B5F0067403936842
:1004BB0060E9A3A3A3A380D8EC8EF0A4CCC5F0CCA9
:1004CB00CDF8EFA4CEC5F02DFDE43CFCE8A42EC87E
:1004DB00C5F03DFDE43CFCEFA4FFE5F028FEE43D58
:1004EB00FDE43CFC22C0E0C0F0C083C082C0D075EC
:1004FB00D000C000C001C002C003C004C005C006CC
:10050B00C007E5EE20E20302059E75EE0412108C87
:10051B00E52C452B6008E52C152C7002152B051DC1
:10052B00121192C4F854F0C8EDC4540F487A005419
:10053B003FFBEC1313543F6B7001E47F0060027FB1
:10054B0001E51DC394147E0040027E01EE5F604303
:10055B00751D009000CBE01313543FD39BE49A40DE
:10056B000A1211752401FFE43E800C9000CB12118E
:10057B007524FFFFEE34FFEF543FC4F8540FC868E7
:10058B00FFE4C454F0484CFEEF4DFF9000CBEEF06F
:10059B00A3EFF0E5EE30E16075EE0212119213134A
:1005AB00543FFF7E00543F60069000BEE004F09085
:1005BB0000BEE0B46E06E4F0A3E004F09000BFE0F0
:1005CB00640A7031F0EC5403FCEF24FFFFEF543F4F
:1005DB0025E025E04CFFED9000CBCFF0A3EFF090A2
:1005EB0000CBE01313543F700CA3E054FEF09000CB
:1005FB00CEE04401F012119CD007D006D005D004F8
:10060B00D003D002D001D000D0D0D082D083D0F094
:10061B00D0E03290007CE0AD287C002DFFEC33FE67
:10062B00EF25E0FFEE33FE741B2FF58274003EF5D1
:10063B0083E022FAA3E0FBED2500FFEC33FEEF2570
:10064B00E0FFEE33FE747D2FF58274003EF583E000
:10065B002290131493FCFFEDC39FFFE49400FEEF75
:10066B00780522FFECFDC374809DFDE49400FC0231
:10067B00035375F00290001B02047EFFC3EB9FFF38
:10068B00EA9E9000B9F0A3EFF0EDFF9000B9E48F74
:10069B00F002038990007D75F002E51802047EFFDD
:1006AB00C374209FFFE49400FE1202ECEF78062245
:1006BB00C3EB9FEE6480F8EA64809822ED75F0043A
:1006CB00A4FF9000B9E5F0F0A3EFF0229013149380
:1006DB00FFEDC39F22E500C313FEE50013FFC3E547
:1006EB00009F22AC00AD001202FEAD07229000B9B4
:1006FB00E0FAA3E0FBAE02780222FEA3E0FFAD031B
:10070B00AC020204C3FEA3E02BFFEE3AFEC3EF22C2
:10071B00FEA3E0FBAA06E4F9F8229000B9E0FEA3E1
:10072B00E0780222AC00AD001202FEAD0722E4F528
:10073B00151208F81208981208328F1612088D122B
:10074B0008328F17E51764026008E517640360022F
:10075B00C202E516704DE51770381208EA701A12CE
:10076B00086EE06003020800EF4EF61208BC743C02
:10077B00F012086E7402F0807C12086E7402F01294
:10078B0008BCE07070E51590131593F4784856F695
:10079B0080441208EA605412086EE07058EFF45E61
:1007AB00F68010E5177007120849E4FD804278487F
:1007BB00E6600A1208D31208547D0280331208F83F
:1007CB0012088512088D7B147A001210F1EF601B52
:1007DB0012086EE0701F120849E515120915120870
:1007EB00851208D31208667D028005120849AD17E1
:1007FB00AF151200460515E515C394085003020703
:10080B003C7848E660109000A0E0700A120F295067
:10081B0005E4F61210507848E69000A0F0600475DD
:10082B00270122E4F52722E51590131593784856F6
:10083B0024FF92037B147A00AF15120DB422E51539
:10084B0025E0247DF582E43400F583E0FEA3E0FF90
:10085B00E51525E02401F582E43400F583EEF0A3E1
:10086B00EFF02274B12515F582E43400F58322E50F
:10087B001525E0248EF582E43400F583E0FEA3E039
:10088B00FF22E51525E0247DF582E43400F583E0B5
:10089B00FCA3E0FD2274A12515F582E43400F58359
:1008AB0022E51575F00AA4242BF582E43400F583B8
:1008BB002274A92515F582E43400F58322EF25E097
:1008CB0024D1F582E4340022E51525E0241BF582C2
:1008DB00E4340022EF25E024CFF582E4340022E556
:1008EB001590131593FF7848E6FEEF5E22E515256C
:1008FB00E02401F582E4340022ED25E02409F822FE
:10090B0025E0248EF582E434002225E0247DF58257
:10091B00E4340022F582E43400F583EFF0229000FA
:10092B007BE0700FF525120FC490007B7401F075FE
:10093B0021322290007BE0640160030209FD20015B
:10094B00030209FDC2011521E5216004E40209F847
:10095B00E47847F6F515E515C37836965068E4FF4D
:10096B00E51512090B120898E5151208AE75F00281
:10097B00EF12047EECF0A3EDF00FBF05E374A1259D
:10098B00151208A4E4F012087AE5151208D512081E
:10099B006612087AE51512085DE51525E025E024B9
:1009AB00F6F582E43412F583E493FE740193FFE5CC
:1009BB001525E02437F8A60608A6077D02AF151209
:1009CB0000460515809012111F900011EFF0751560
:1009DB0001900011E0FF7411251512091F0515E593
:1009EB0015B40AEDE49000BBF0782D7601F52512D5
:1009FB000FC422E4F515E515C37836964003020AB9
:100A0B00CB1208A0E004F01208A0E0C39405400547
:100A1B001208A0E4F0C2E9E51512087C1208ACC07C
:100A2B0083C0821208A0E0D082D08375F00212043A
:100A3B007EEEF0A3EFF0D2E9E4F5161208AC75F0F8
:100A4B0002E51612047EE0FEA3E0FFE5161208E0B5
:100A5B001208660516E516B405E1E4F516E4FFC3C6
:100A6B0074049516FEEFC39E50391208C8120898ED
:100A7B001208DFF583E0FAA3E0FBD39DEA9C40204C
:100A8B008A178B181208C81208981208DFF583EC26
:100A9B00F0A3EDF01208C8F583E517F0A3E518F005
:100AAB000F80BC0516E516640370B29000D3E0FE10
:100ABB00A3E0FFE5151209151208660515020A01D8
:100ACB0022908109E054E06004E044E0F085C00826
:100ADB00E4FD74017E00A805088005C333CE33CE38
:100AEB00D8F9FFACC7ECFBEF5B601C7401A80508E1
:100AFB008002C333D8FCF5C78DC0120904A6CFED15
:100B0B0025E0240AF8A6CE0DBD06C7E4FDEDFFE5F2
:100B1B00252FFFE433FE7836E67A00B50715EAB5E4
:100B2B000611120904E6FF08E69000BCCFF0A3EF14
:100B3B00F08015120904E6FE08E6FFE5252D1209E3
:100B4B000B1208660DBD06C5E5252406FFE433FE32
:100B5B007836E6FDD3EF9D7480F86E984007D2018E
:100B6B00E4F525800674062525F525120FC48508A6
:100B7B00C0227B789000C7E0FEA3E0FFE4FCFDFA07
:100B8B00F9F8C302046D9000CBE05403FEA3E0FF21
:100B9B00EE229000C9E0FEA3E0FFEE3395E0FDFCF2
:100BAB00E4229000C7E0FEA3E0FFE4FCFD7BE87AC3
:100BBB0003F9F8D302046DEF4DFF9000CBEEF0A3D9
:100BCB00EFF0229000CBE0FCA3E0FDECC313ED13A0
:100BDB00229000C9E475F0010203899000CBE0C3B9
:100BEB0013A3E01322D39000CAE094009000C9E055
:100BFB006480948022D2B0D2B1D280D2812274FF91
:100C0B00F5F00203899000CBE0C4F854F0C8A3E0E0
:100C1B00C4540F487E00543FFFD39405EE9400401C
:100C2B0008120C00D282D28322D3EF9404EE9400EC
:100C3B004008120C00D282C28322D3EF9403EE94AD
:100C4B00004005120C008045D3EF9402EE94004057
:100C5B000AD2B0D2B1D280C2818032D3EF9401EEEE
:100C6B009400400AD2B0D2B1C280C281801FD3EFB0
:100C7B009400EE9400400AD2B0C2B1C280C281800F
:100C8B000CEF4E700CC2B0C2B1C280C281C282C224
:100C9B008322787FE4F6D8FD758148020CE40212BA
:100CAB00B0E493A3F8E493A34003F68001F208DFCA
:100CBB00F48029E493A3F85407240CC8C333C45419
:100CCB000F4420C8834004F456800146F6DFE480CD
:100CDB000B010204081020408090114CE47E01931C
:100CEB0060BCA3FF543F30E509541FFEE493A3609F
:100CFB00010ECF54C025E060A840B8E493A3FAE4FA
:100D0B0093A3F8E493A3C8C582C8CAC583CAF0A34A
:100D1B00C8C582C8CAC583CADFE9DEE780BEE4F571
:100D2B0029F52AE52670399000A0E0607BE4FFEFFF
:100D3B0090131593FE9000A0E05E600E8F24EF9051
:100D4B00132293752200F52380040FBF08E185223F
:100D5B002985232AC200752B00752CFA75260122D2
:100D6B00E52664017042E52490131593FF9000A0D3
:100D7B00E05F6021E52C452B702E200008D200E5AA
:100D8B002244408004E5224420F52985232A752B33
:100D9B0000752C4622E522200004441080024430CA
:100DAB00F52985232AE4F526228A188B19A907E948
:100DBB0012067DE0FEA3E0C39DFFEE9CAB07FAE9B4
:100DCB0025E02437F8E6FE08E6FF30030C7C007DB7
:100DDB005A1202EC7D641203531206BB40037F00D0
:100DEB0022D3EB9519E5181206BF40037F0122C3EE
:100DFB00EA6480948040037F0222C3E49519FFE4E8
:100E0B009518FE1206BB7F0440027F0322783676CC
:100E1B0008E4FFFEEE25E025E024F4F582E434122D
:100E2B00F583740193FDAC070F742E2CF8A6050EF9
:100E3B00BE08E143A18043A28075F1E0E4F5EDD259
:100E4B00EE1210C275C20A75C1409081037457F03F
:100E5B00D2E9C201E49000A0F07848F6F527782D8E
:100E6B00F690007BF090009EF0F526F529F52A22EE
:100E7B009000CEE030E11B120B7D50069000C712A4
:100E8B000C097B32120B7F503B9000C774FFF5F0BF
:100E9B00802F120B7D50067B01C00380047B00C0AA
:100EAB0003120BAD7F0040027F01D0E05F60069024
:100EBB0000C7120BDF120BAD400A9000C7E475F0B0
:100ECB00011203899000CEE04401F022120BE67E62
:100EDB00005407FF70119000C1E0FDA3E09000C724
:100EEB00CDF0A3EDF08028EF64014E700C9000C3A1
:100EFB00E0FFA3E09000C78011120BE654076402D9
:100F0B00700D9000C5E0FFA3E0A3CFF0A3EFF0902E
:100F1B0000CBE0FEA3E054F1440C120BC422E4FA24
:100F2B009000BBE0FFB40907900011E0FC800C744B
:100F3B00122FF582E43400F583E0FC12111FECD381
:100F4B009F4005EC9FFB8004C3EF9CFBEBD3940C01
:100F5B0040190AEA9403501190009E7403F090001C
:100F6B009EE070FA12123480B7D322C322908018FD
:100F7B007482F0908019F0908000F0908001F090D6
:100F8B008002F0908003F0908006F090801C740635
:100F9B00F0E4F518F519F51A7B01FD7F03121258D1
:100FAB00E4FBFA7DE87C037F031212DC7F03121251
:100FBB00C01212EF7F030212CEE4FFEFC394065070
:100FCB003EEFFDE5252DFDE433FC7836E6FBC3ED66
:100FDB009B7480F86C9840168FC075C455EF04FE57
:100FEB00EEC3940650198EC075C4400E80F28FC0AC
:100FFB00E5252F242EF8E6044440F5C40F80BC43AE
:10100B00C18022120BE65407146013146015146090
:10101B001E24FD60222406702B9000C180089000D6
:10102B00C380039000C5E0FFA3E09000C98010903F
:10103B0000CCE054FEF0229000C7E0FFA3E0A3CF6A
:10104B00F0A3EFF022E4F518E518C378369650308C
:10105B0012069FE0FEA3E0FF9000011206A2EEF045
:10106B00A3EFF012069FE0FEA3E0FFE51812067D4A
:10107B00EEF0A3EFF07D02AF18120046051880C802
:10108B0022900000E004F0E0C394044029E4F0FF58
:10109B007836E6FEEFC39E501574B12F120872E03E
:1010AB00600974B12F120872E014F00F80E2900007
:1010BB009EE0600214F0229080117403F0E4FF783C
:1010CB0036E6FEEFC39E501D742E2FF8E675F00327
:1010DB00A42436F582E43413F58312048A740412C3
:1010EB0002DA0F80DA22C3EF9DFFEE9CFED3EF9B5B
:1010FB00EA6480F8EE6480985017C3E49BFDE49A91
:10110B00FCC3EF9DEC6480F8EE64809840037F0194
:10111B00227F0022E5B930E705E5B930E5FBAFB931
:10112B00AEBAADBB75B91C53BB3F75BA8943B98019
:10113B00E5B930E5FB43B9208FB98EBA8DBBAFBD96
:10114B0022011D004400CB000200024300BE000040
:10115B00004A00C1006401F403E800000000021B18
:10116B0000004100000001210000E0FCA3E0FDECC9
:10117B00C4F854F0C868FEEDC4540F48FFEC54FC9F
:10118B00FCED540FFDEF229000CBE0FCA3E0FDEC57
:10119B0022E4FF74A92F1208C0E0600974A92F1272
:1011AB0008C0E014F00FBF08EA7847E6600116901C
:1011BB00009FE0600214F022782DE61460080470A2
:1011CB001B1209298016300113C2011212341209A5
:1011DB00FED202E52764026003120739020D29EFE4
:1011EB00C39402401FEFD394085019EF24FE3333FE
:1011FB003354F84480F5ADE5AD30E0FBE5A254F88F
:10120B004404F5A2229000CEE030E01C54FEF09096
:10121B0000C9E0FAA3E0FB7DE87C037F031212DC3C
:10122B007F031212C01212EF2290009EE0701D7409
:10123B0003F09000BBE004F0E0C3940A4002E4F03A
:10124B0012111F9000BBE0241112091F228FC0EF57
:10125B0030E00712005E451A800412005E4BF5DB8E
:10126B00E518C433333354804519F5DC227C007DFB
:10127B00071202ECEF1FAC0670011E4C600BE4FB77
:10128B00EBC3940F50EE0B80F7228F828E83E58297
:10129B001582AE83700215834E60097F147E001297
:1012AB00127880EA221212E7D2AF120E181211C373
:1012BB0012006E80F87401A807088002C333D8FCB3
:1012CB0042D9227401A807088002C333D8FC42D844
:1012DB00228FC08CDE8DDD8AD18BDF227F0712112E
:1012EB00EA020F78E5D970FC220000003200010001
:1012FB001E0002002800030028000400280005003F
:10130B002800060032000A004600010204081020E3
:10131B0040800264501E1E010203040506070809E3
:10132B000A0B0C0D0E0F1011121314018008018003
:10133B000901800A01800B01800C01800D01800ED8
:10134B0001800F01801F01801E01801D01801C0187
:10135B008007018006018005018004018003018064
:07136B000201800101800076
:00000001FF
