:10000000022CBF02003A90002EE014600804702712
:10001000121BAE802230011FC201121CC21222DB51
:10002000E4F50B1225D390004CE0700BD202E50DE5
:1000300064026003121000021A85320226BF8FF795
:100040008DE3220224999080377401F0E4F5F7756E
:10005000FBB7D2E843F90143F80122022419AB07A8
:100060008BF78CD38DD2AF0302271102129C20A7ED
:10007000100020A722900000E475F0011229C3802F
:1000800016900000E0FFA3E090000ECFF0A3EFF089
:10009000E4900000F0A3F020971000209722900039
:1000A00002E475F0011229C38016900002E0FFA35C
:1000B000E0900010CFF0A3EFF0E4900002F0A3F086
:1000C00020961000209622900004E475F001122979
:1000D000C38016900004E0FFA3E0900012CFF0A3CD
:1000E000EFF0E4900004F0A3F020C4100020C4223C
:1000F000900006E475F0011229C38016900006E016
:10010000FFA3E0900014CFF0A3EFF0E4900006F01E
:10011000A3F020C3100020C322900008E475F00172
:100120001229C38016900008E0FFA3E0900016CFCC
:10013000F0A3EFF0E4900008F0A3F020C21000203C
:10014000C22290000AE475F0011229C380169000C3
:100150000AE0FFA3E0900018CFF0A3EFF0E49000D6
:100160000AF0A3F020C0100020C02C90000CE47511
:10017000F0011229C3802090000CE0FFA3E0900062
:100180001ACFF0A3EFF0E490000CF0A3F090001D64
:10019000E0B402037403F090000EE0FEA3E0FFC39E
:1001A00094FFEE94005061EF9401EE94004059905A
:1001B00000207401F0900023E0FCA3E0FDEC13FFAD
:1001C00054036027EC54F9FCEF2401FFEF5403259E
:1001D000E04CFFED900023CFF0A3EFF0A3E0FEA3EF
:1001E000E054E04414FF900025804D900023E0FE91
:1001F000A3E0FF5401FBEF54FEFFEB64015401FD4B
:10020000EF4DFF9000238030C3900001E094FF90F9
:100210000000E094004026900023E054F9FEA3E0A3
:10022000FFEE4402900023F0A3EFF0A3E0FEA3E072
:1002300054E04414FF900025EEF0A3EFF09000107E
:10024000E0FEA3E0FFC394FFEE94005079EF940129
:10025000EE940040719000217401F0900023E0FCC6
:10026000A3E0FDEC131313541FFF7E005403602C16
:10027000EC54E7FCEF2401FFEE33EF540333333348
:1002800054F84CFFED900023CFF0A3EFF0A3E0FE75
:10029000A3E054E04414FF900025805A900023E02E
:1002A000FCA3E0FDECC313ED135401FFED54FDFD81
:1002B000EF6401540125E0FFE433FEEC4EFEED4F08
:1002C000FF9000238030C3900003E094FF90000271
:1002D000E094004026900023E054E7FEA3E0FFEE08
:1002E0004408900023F0A3EFF0A3E0FEA3E054E065
:1002F0004414FF900025EEF0A3EFF0900012E0FE12
:10030000A3E0FFC394FFEE9400500FEF9401EE942E
:1003100000400790002274018014C3900005E0940F
:10032000FF900004E09400401A9000227402F090C4
:100330000025E0FEA3E054E04414FF900025EEF019
:10034000A3EFF0900014E0FEA3E0FFC394FFEE944F
:1003500000500FEF9401EE9400400790001E7401CE
:100360008014C3900007E094FF900006E0940040E2
:100370001A90001E7402F0900025E0FEA3E054E005
:100380004414FF900025EEF0A3EFF0900016E0FE7D
:10039000A3E0FFC394FFEE94004002815DEF94015F
:1003A000EE94005002815D900023E0FCA3E0FDAEDE
:1003B000047807CEC313CE13D8F9FF54036038EC8A
:1003C00054FEFCED547FFDEF2401FF7E00EF54034B
:1003D0007807C333CE33CED8F9FFEE4CFEEF4DFF96
:1003E000900023EEF0A3EFF0A3E0FEA3E054E0447E
:1003F00014FF9000258037900023E0FCA3E0FD7AF5
:10040000007B01AE047806CEC313CE13D8F9540195
:10041000FFED54BFFDEF6B7E0054017806C333CE71
:1004200033CED8F9FFEC4EFEED4FFF900023EEF0F7
:10043000A3EFF0900023E0FCA3E0FDAE047807CE2C
:10044000C313CE13D8F95403C39403E49400404A71
:10045000EC54FEFFED547F900023CF8039C3900011
:1004600009E094FF900008E09400402E90001F7473
:1004700002F0900023E054FEFEA3E0547F4480FF8E
:10048000900023EEF0A3EFF0A3E0FEA3E054E044DD
:1004900014FF900025EEF0A3EFF0900018E0FEA30B
:1004A000E0FFC394FFEE9400500EEF9401EE940031
:1004B000400690001C7401F090001AE0FEA3E0FFDB
:1004C000C394FFEE94004002A15AEF9401EE940011
:1004D0005002A15A900023E0FCA3E0FDAE04780393
:1004E000CEC313CE13D8F97A005401FBEDAE0478D5
:1004F00002CEC313CE13D8F95401FFEAFEEF4B4EE0
:100500006029E4900029F0A3F0900024E054FBF06F
:1005100054F7F0A3E054CFF0A3E0F0900028E044BB
:1005200001F0900026E04420F0802F900025E0FCB0
:10053000A3E0FDECC4540FFFEC54CFFCEF2401FF0B
:10054000E433EF5403C454F04CFFED900025CFF09A
:10055000A3EFF0900028E04401F090000CE070035D
:10056000A3E0F4702A900025E0FCA3E0FDECC413A6
:1005700013135401FFEC547FFCEF64015401C433A6
:10058000333354804CFFED900025CFF0A3EFF0C340
:1005900090001BE094FF90001AE094004008900047
:1005A00025E054BFF022C390000DE094FF90000CB2
:1005B000E09400400D90001D7402F0900025E0448E
:1005C00040F022900025E020E702C19CC45403249F
:1005D000FE6049147002C15A24026002E1F69000E4
:1005E00069E0FEA3E0FFE4FCFD7B2C7A01F9F8C38F
:1005F000122B1D500A90006974FFF5F01229C39068
:100600000069E0FEA3E0FFE4FCFD7B32FAF9F8C3E9
:10061000122B1D4002E1F6900069807A900067E09D
:10062000FEA3E0FFE4FCFD7B2C7A01F9F8C3122B5A
:100630001D500A90006774FFF5F01229C3900067FF
:10064000E0FEA3E0FFE4FCFD7B32FAF9F8C3122BD5
:100650001D4002E1F6900067803C900065E0FEA33B
:10066000E0FFE4FCFD7B2C7A01F9F8C3122B1D504E
:100670000A90006574FFF5F01229C3900065E0FE52
:10068000A3E0FFE4FCFD7B32FAF9F8C3122B1D4016
:1006900002E1F690006574FFF5F0E1F3900025E0CB
:1006A000C4540324FE6078147002E18A24026002BC
:1006B000E1F6900069E0FEA3E0FFE4FCFD7B2C7A0C
:1006C00001F9F8C3122B1D50067B01C00380047B87
:1006D00000C003900069E0FEA3E0FFE4FCFD7BE8BE
:1006E0007A03F9F8D3122B1D7F0040027F01D0E07E
:1006F0005F600A900069E475F0011229C3900069F7
:10070000E0FEA3E0FFE4FCFD7BE87A03F9F8D312F6
:100710002B1D5002E1F6900069E475F001E1F390C1
:100720000067E0FEA3E0FFE4FCFD7B2C7A01F9F812
:10073000C3122B1D50067B01C00380047B00C00345
:10074000900067E0FEA3E0FFE4FCFD7BE87A03F99C
:10075000F8D3122B1D7F0040027F01D0E05F600ABA
:10076000900067E475F0011229C3900067E0FEA3D2
:10077000E0FFE4FCFD7BE87A03F9F8D3122B1D407F
:1007800075900067E475F0018069900065E0FEA354
:10079000E0FFE4FCFD7B2C7A01F9F8C3122B1D501D
:1007A000067B01C00380047B00C003900065E0FE6F
:1007B000A3E0FFE4FCFD7BE87A03F9F8D3122B1DDC
:1007C0007F0040027F01D0E05F600A900065E47521
:1007D000F0011229C3900065E0FEA3E0FFE4FCFDF8
:1007E0007BE87A03F9F8D3122B1D400A900065E4E8
:0E07F00075F0011229C3900028E04401F022A8
:10080000900023E013131354037002615C122391D0
:10081000900021E0B40117E4F0900023E0131313DB
:1008200054036403700820C50512278A80F89000DD
:1008300022E064017072F0A3E0131313540324FE4A
:1008400060151460202402705890005BE004F0E012
:100850006418704DF0804A90005CE004F0E0643C65
:10086000703FF0803C90005DE0FEA3E0FF7C005410
:100870000FFD640F6019EF54F0FFED2403FDEC331E
:10088000ED540FFDEF4DFF90005DEEF0A3EFF09003
:10089000005EE0540FFF120FF820C50512278A8072
:1008A000F8900026E04480F090001EE064016002B1
:1008B000213CF0900023E0131313540324FE601531
:1008C0001460232402706E90005BE070037418F0D3
:1008D00090005B800C90005CE07003743CF0900032
:1008E0005CE014F0804F90005DE0FEA3E0FF540F49
:1008F000D39400E49400401EEF540FFBEF54F0FF3C
:10090000EB9403FDE49400ED540FFDEF4DFF9000D8
:100910005DEEF0A3EFF090005EE0540F700512273B
:100920008F801290005EE0540FFF120FF820C50573
:1009300012278A80F8900026E04480F0785F7C00DF
:100940007D017B017A00795B7E007F041228649030
:100950000060E0C3941E400D90005FE004F0A3E04F
:1009600024E2F08007900060E0241EF0900026E072
:1009700020E7024117900023E0131313540364018E
:1009800060024117A3E030E63290005FE0FDC394BF
:100990000C900063E0400754FA4404F0800554FAD8
:1009A0004401F0ED700690005F740CF090005FE081
:1009B000D3940C400DE024F4F08007900063E054E1
:1009C000FAF090005FE0FFC3940A400BEF75F00A65
:1009D00084902E4C938001E4FD7F011226A59000A7
:1009E0005FE075F00A84E5F0902E4C93FD7F0212D3
:1009F00026A5900060E075F00A84902E4C93FD7F50
:100A0000041226A5900060E075F00A84E5F0902EAF
:100A10004C93FD7F088017900023E01313135403B9
:100A20006401700DFD7F011226A5E4FD7F021226F0
:100A3000A5900026E030E75F900023E013131354E5
:100A4000036402705290005FE0FFC3940A400BEF12
:100A500075F00A84902E4C938001E4FD7F011226EC
:100A6000A590005FE075F00A84E5F0902E4C93FDB0
:100A70007F021226A5900060E075F00A84902E4C4B
:100A800093FD7F041226A5900060E075F00A84E5CE
:100A9000F0902E4C938014900023E0131313540312
:100AA0006402700DFD7F041226A5E4FD7F08122666
:100AB000A5900063E04440F0900023E0131313542A
:100AC000036403707F7D407F011226A57E009000A5
:100AD0005EE0540F243AF582EE342EF583E493B4AD
:100AE000640A75F06484902E4C938001E4FD7F02CB
:100AF0001226A57E0090005EE0540F243AF582EEA7
:100B0000342EF583E49375F00A8475F00A84E5F0D9
:100B1000902E4C93FD7F041226A57E0090005EE08F
:100B2000540F243AF582EE342EF583E49375F00ADF
:100B300084E5F0902E4C93FD7F081226A59000636B
:100B4000E054BFF0900063E0FD7F101226A59000F6
:100B500024E04402F0A3E04401F0010022900023CD
:100B6000E0C31354037002C1B0122391900020E03F
:100B7000B40116E4F0900023E0C31354036403703F
:100B80000820C50512278580F8900022E0640170D6
:100B900071F0A3E0C313540324FE601514602024F5
:100BA000027058900057E004F0E06418704DF08037
:100BB0004A900058E004F0E0643C703FF0803C90C4
:100BC0000059E0FEA3E0FF7C00540FFD640F6019A4
:100BD000EF54F0FFED2403FDEC33ED540FFDEF4D2A
:100BE000FF900059EEF0A3EFF090005AE0540FFF91
:100BF000120FF820C50512278580F8900026E044E2
:100C000080F090001EE0640160028195F090002366
:100C1000E0C313540324FE60151460232402706E95
:100C2000900057E070037418F0900057800C90000B
:100C300058E07003743CF0900058E014F0804F903E
:100C40000059E0FEA3E0FF540FD39400E494004069
:100C50001EEF540FFBEF54F0FFEB9403FDE4940000
:100C6000ED540FFDEF4DFF900059EEF0A3EFF09023
:100C7000005AE0540F700512278F801290005AE03E
:100C8000540FFF120FF820C50512278580F8900039
:100C900026E04480F0785F7C007D017B017A00795A
:100CA000577E007F04122864900060E0C3941E40C9
:100CB0000D90005FE004F0A3E024E2F080079000D4
:100CC00060E0241EF0900026E020E702A16F900073
:100CD00023E0C313540364016002A16FA3E030E674
:100CE0003290005FE0FDC3940C900063E040075435
:100CF000FA4404F0800554FA4401F0ED70069000C7
:100D00005F740CF090005FE0D3940C400DE024F48D
:100D1000F08007900063E054FAF090005FE0FFC3BA
:100D2000940A400BEF75F00A84902E4C938001E4F6
:100D3000FD7F011226A590005FE075F00A84E5F0C2
:100D4000902E4C93FD7F021226A5900060E075F076
:100D50000A84902E4C93FD7F041226A5900060E03B
:100D600075F00A84E5F0902E4C93FD7F0880169074
:100D70000023E0C31354036401700DFD7F011226AC
:100D8000A5E4FD7F021226A5900026E030E75E90E4
:100D90000023E0C31354036402705290005FE0FF2D
:100DA000C3940A400BEF75F00A84902E4C93800197
:100DB000E4FD7F011226A590005FE075F00A84E54E
:100DC000F0902E4C93FD7F021226A5900060E075F6
:100DD000F00A84902E4C93FD7F041226A5900060AB
:100DE000E075F00A84E5F0902E4C93801390002378
:100DF000E0C31354036402700DFD7F041226A5E4C2
:100E0000FD7F081226A5900063E04440F090002387
:100E1000E0C31354036403707F7D407F011226A555
:100E20007E0090005AE0540F243AF582EE342EF5FD
:100E300083E493B4640A75F06484902E4C9380012B
:100E4000E4FD7F021226A57E0090005AE0540F2494
:100E50003AF582EE342EF583E49375F00A8475F04A
:100E60000A84E5F0902E4C93FD7F041226A57E00A7
:100E700090005AE0540F243AF582EE342EF583E4C4
:100E80009375F00A84E5F0902E4C93FD7F081226AE
:100E9000A5900063E054BFF0900063E0FD7F101266
:100EA00026A5900024E04401F0A3E04401F0615D38
:100EB00022900024E0FD90006330E006E04420F042
:100EC0008004E054DFF0ED90006330E106E0441070
:100ED000F08004E054EFF0900025E0FCA3E0FDAECC
:100EE000047805CEC313CE13D8F95401FBEC54019A
:100EF000FFEF4B6016900026E054DFF0900025E0F5
:100F000054FEF030C50512278F80F8120006A2911A
:100F1000B39291E51145107002E1F5E5118510F0ED
:100F2000122BBB0F3310010FEE30010FBB4001003D
:100F3000000FF5900023E0FCA3E0FDAE047803CEA3
:100F4000C313CE13D8F97A005401FBEDAE04780236
:100F5000CEC313CE13D8F95401FFEAFEEF4B4E90E7
:100F600000256029E0F0A3E054E0F0900024E05474
:100F7000FBF054F7F0A3E054CFF0A3E0F09000288A
:100F8000E04401F0900026E04420F08068E0FCA3FB
:100F9000E0FDECC4540FFFEC54CFFCEF2401FFE460
:100FA00033EF5403C454F04CFFED900025CFF0A371
:100FB000EFF0900028E04401F0803A900025E0FC3A
:100FC000A3E0FDECC41313135401FFEC547FFCEFBA
:100FD00064015401C433333354804CFFED90002539
:100FE000CFF0A3EFF0900025E04440F080079000A0
:0F0FF00025E054BFF002210BEF44E0FF0224D8AC
:10100000E4F52490003EE0FFE524C39F40024183C5
:10101000E52425E0242CF582E43400F583E0FCA3EC
:10102000E0FDAF241220008F25E52425E02436F5CD
:1010300082E43400F583E0FCA3E0FDAF241220003D
:101040008F26E52664026008E52664036002C2027A
:10105000E52560022169E52660022110E52425E0EE
:1010600025E02457F582E4342DF583122B3A9000C5
:1010700042122B4A122AF6EC4D4E4F704F744B25FC
:1010800024F582E43400F583E06002417F90004261
:10109000122B2EE52425E025E02457F582E4342D9B
:1010A000F583122B56122B03900042122B667448C4
:1010B0002524F582E43400F583743CF0744B252438
:1010C000F582E43400F5837403F0417F744B2524EA
:1010D000F582E43400F5837403F074482524F58226
:1010E000E43400F583E06002417F900042122B4A15
:1010F000E52425E025E02457F582E4342DF583121C
:101100002B3A122B10122AF6900042122B6641083D
:10111000E52425E025E02457F582E4342DF58312FB
:101120002B3A900042122B4A122AF6EC4D4E4F6099
:1011300036744B2524F582E43400F583E0600241E7
:101140007F900042122B4AE52425E025E02457F544
:1011500082E4342DF583122B3A122B10122AF690CA
:101160000042122B6641544154E5267028E524259F
:10117000E02436F582E43400F583E0FEA3E0FFE5E9
:101180002425E0242CF582E43400F583EEF0A3EF6F
:10119000F0E4FD417AE4FFFEFDFC900042122B4A90
:1011A000C3122B1D6028E52425E0242FF582E434AA
:1011B00000F583E0FEA3E0FFE52425E0242CF58282
:1011C000E43400F583EEF0A3EFF07D02417AE524EC
:1011D00025E0242CF582E43400F583E0FCA3E0FD57
:1011E000E52425E02436F582E43400F583E0FAA313
:1011F000E0FBAF24122583EF605A744B2524F5825F
:10120000E43400F583E07077E52425E02436F582A8
:10121000E43400F583E0FEA3E0FFE52425E0242C80
:10122000F582E43400F583EEF0A3EFF0E52425E049
:101230002436F582E43400F583E0FEA3E0FFE524E4
:1012400025E0242FF582E43400F583EEF0A3EFF0DF
:101250007D028026E52425E02436F582E43400F57D
:1012600083E0FEA3E0FFE52425E0242CF582E434AE
:1012700000F583EEF0A3EFF0AD26AF241226FE05B5
:10128000240103E4FFFEFDFC900042122B4AC3122E
:101290002B1D6004750D0122E4F50D22C0E0C0F0A5
:1012A000C083C082C0D075D000C000C001C002C0E1
:1012B00003C004C005C006C007E5EE30E22175EEAC
:1012C00004122515E51445136008E5141514700281
:1012D000151312006E900025E030E6031205C3E5F9
:1012E000EE20E102A11375EE02122459900025E0D0
:1012F000FCA3E0FD7A007B01AE047807CEC313CED9
:1013000013D8F95401FFED547FFDEF6B7E005401BB
:101310007807C333CE33CED8F9FFEC4EFEED4FFF46
:10132000900025EEF0A3EFF0900023E0FCEC131307
:10133000135403FBECC3135403FFEF4B70079000EF
:1013400063E06440F0900026E030E718900024E06D
:1013500030E211900029E475F0011229C390006376
:10136000E06420F0900026E030E718900024E030A0
:10137000E311900029E475F0011229C3900063E0A5
:101380006410F090002AE054036024900024E030C0
:10139000E21DC390006AE094E8900069E094035075
:1013A0000EE475F0011229C3900028E04401F0908A
:1013B000002AE054036024900024E030E31DC39031
:1013C000006AE09402900069E09400400E74FFF51A
:1013D000F01229C3900028E04401F0E5F270079074
:1013E0000026E04440F0900054E5F3F0900025E042
:1013F000FEA3E0FF541F604CAC06EF54E0FDEF2469
:10140000FFFFEF541FFFECFEEF4DFF900025EEF0C5
:10141000A3EFF0541F702DE04420F0900023E0541F
:10142000FEFEA3E0547FFF900023EEF0A3EFF0EE6A
:1014300054F9FE900023F0A3EFF0EE54E790002360
:10144000F0A3EFF0900025E030E002A1139000241B
:10145000E030E652E5F4541FC3940C900063E04082
:101460000754FA4404F0800554FA4401F0E5F454BA
:101470001F7006900053740CF0E5F4541FD3940CC5
:10148000500FE5F4541FC394014006900053E5F457
:10149000F0E5F4541FD3940C4019E5F4541F24F4E0
:1014A000900053F0800D900063E054FAF0900053E8
:1014B000E5F4F0900053E0FFC3940A400BEF75F0A1
:1014C0000A84902E4C938001E4FD7F011226A590A2
:1014D0000053E075F00A84E5F0902E4C93FD7F02F6
:1014E0001226A5900054E075F00A84902E4C93FDCE
:1014F0007F041226A5900054E075F00A84E5F09070
:101500002E4C93FD7F081226A5900063E0FD7F100E
:101510001226A5E5EE30E00375EE01D007D006D027
:1015200005D004D003D002D001D000D0D0D082D0DA
:1015300083D0F0D0E032900023E0FEA3E07807CE25
:10154000C313CE13D8F954037002E181900053E520
:10155000F4F0A3E5F3F0122391900063E04440F02F
:10156000900022E064017049F0A3E0FEA3E0780758
:10157000CEC313CE13D8F9540324FE601904702A85
:10158000900053E004F0E0B41802E4F0900053E05F
:10159000FF1226D58014900054E004F0E0B43C0221
:1015A000E4F0900054E0FF122767900026E04480AA
:1015B000F090001EE06401704BF0900023E0FEA369
:1015C000E07807CEC313CE13D8F9540324FE601974
:1015D00004702A900053E070037418F0900053E0F8
:1015E00014F0E0FF1226D58014900054E0700374CC
:1015F0003CF0900054E014F0E0FF122767900026C2
:10160000E04480F0785F7C007D017B017A007953B3
:101610007E007F04122864900024E030E64B9000A6
:1016200053E0FDC3940C900063E0400754FA440477
:10163000F0800554FA4401F0ED700690005F740CE0
:10164000F0900053E0FFD3940C500BEFC394014093
:101650000590005FEFF0900053E0FFD3940C401032
:10166000EF24F490005FF08007900063E054FAF0FC
:10167000900026E030E742900023E0FEA3E07807E8
:10168000CEC313CE13D8F954036401702C90005FBD
:10169000E0FFC3940A400BEF75F00A84902E4C9340
:1016A0008001E4FD7F011226A590005FE075F00A3D
:1016B00084E5F0902E4C93801D900023E0FEA3E083
:1016C0007807CEC313CE13D8F954036401700DFD0F
:1016D0007F011226A5E4FD7F021226A5900026E0D8
:1016E00030E768900023E0FEA3E07807CEC313CE76
:1016F00013D8F954036402705290005FE0FFC39462
:101700000A400BEF75F00A84902E4C938001E4FDA3
:101710007F011226A590005FE075F00A84E5F09045
:101720002E4C93FD7F021226A5900060E075F00A12
:1017300084902E4C93FD7F041226A5900060E075E6
:10174000F00A84E5F0902E4C93801D900023E0FE7B
:10175000A3E07807CEC313CE13D8F9540364027004
:101760000DFD7F041226A5E4FD7F081226A590003A
:1017700063E0FD7F101226A5900025E04401F0A152
:1017800036229080287405F0908029F090802AF00D
:10179000E4F527F528F529FBFDFF121FCDE4FBFA40
:1017A0007DE87C03FF122735E4F527F528F529FBB2
:1017B000FD7F01121FCDE4FBFA7DE87C037F01125F
:1017C0002735E4F527F528F529FBFD7F02121FCD0B
:1017D000E4FBFA7DE87C037F02122735E4FF122741
:1017E000777F011227777F0212277790803174422A
:0F17F000F053A9FD2212188DED0228F28FED2281
:1018000074352500F582E43400F583E0AD0F7C00EB
:101810002DFFEC33FEEF25E0FFEE33FE742F2FF5A6
:101820008274003EF583E0FAA3E0FBED2500FFECB7
:1018300033FEEF25E0FFEE33FE22E50090004D750C
:10184000F002022BA375F00290003C022BA375F06E
:101850000290002F022BA3EFFD7C00C3E5009DFF4B
:10186000E49CFEEF780522742F2FF58274003EF57C
:1018700083E0FEA3E022FFC374809DFDE49CFC0294
:10188000298D90003175F002E524022BA374332FCB
:10189000F582E43400F583E075F003A424D4F582E6
:1018A000E4342DF583022BAF75F00290003F122B2C
:1018B000A3E0FEA3E0FF7D0F7C001229267D6422B9
:1018C000D3ED9FEE6480F8EC64809822AB00AA0010
:1018D000A9008500827583001228A3FFE500C39F3D
:1018E00022E515FD7C0090003AE0FEA3E0FF02290E
:1018F00038E500902D549322E5299FEE6480F8E5A9
:10190000286480982274352500F582E43400F5833C
:1019100022C3E49FFFE49EFE2274362FF5827400FA
:1019200022E50075F040A485F000F50022E5009066
:101930002D559322E500902D539322AC00AD00125B
:1019400029388F0022900024E0FF30E048900057B3
:10195000E0FE900053E06E703C900058E0FE900076
:1019600054E06E7030EF20E22CE4900029F0A3F0F8
:10197000900024E054F7F04404F0E4900069F0A3F0
:10198000F0900025E054CFFEA3E0FFEE441090005D
:1019900025F0A3EFF0900024E0FF30E14B90005BD6
:1019A000E0FE900053E06E703F90005CE0FE90001F
:1019B00054E06E7033EF20E32FE4900029F0A3F0A1
:1019C000900024E054FBF04408F09000697403F0A8
:1019D000A374E8F0900025E054CFFEA3E0FFEE44AE
:1019E00010900025F0A3EFF0900024E030E2489042
:1019F0000029E064077004A3E06408703A90006571
:101A00007403F0A374E8F0900025E04430F0A3E004
:101A1000F0900028E04401F090005AE0540F700567
:101A200012278F801290005AE0540FFF120FF820F7
:101A3000C50512278580F8900024E030E346900029
:101A400029E064077004A3E06408703890006974AA
:101A500003F0A37420F0900025E054CFF0A3E0F051
:101A6000900028E04401F090005EE0540F70030203
:101A7000278F90005EE0540FFF120FF820C505126B
:101A8000278A80F822E4F510F511FB7A00792412F8
:101A90002273E50C7034E524700261ADB4010B755E
:101AA000090085250A750C018018E524B40213E5A8
:101AB0002575F020A4FFE5F0F509EF4526F50A7538
:101AC0000C02850910850A118062E50C6401707BA7
:101AD000E52464017039E525B50A22E4B5091EE55F
:101AE000144513600261AD200008D200E5094440AE
:101AF0008004E5094420F510850A11618FE509206D
:101B00000004441080024430F510850A1161AAE5F2
:101B100024B40221E52575F020A4FFE5F0F509EFD6
:101B20004526F50A750C02850910F511C2007513DA
:101B3000007514FA22E5247074E5092000044410AD
:101B400080024430F510850A11805FE50C64027054
:101B50005CE5246402703FE52575F020A4B50A0B0E
:101B6000E5F0B509067E007F0180047E007F00EF6E
:101B700045264E6038E51445137032200008D20027
:101B8000E50944408004E5094420F510850A1175F3
:101B9000130075144622E5247013E509200004445F
:101BA0001080024430F510850A11E4F50C229000F3
:101BB00034E0700FF5121225D39000347401F075E3
:101BC000083222900034E06401600281C1200102E9
:101BD00081C1C2011508E508600281BEE4781BF6E8
:101BE00090004CF0F524900038E0FFE524C39F40BE
:101BF000028199E52425E025E0244DF582E4342D89
:101C0000F583E493FE740193FFE52425E0243FF57A
:101C100082E43400F583EEF0A3EFF07D02AF2412EE
:101C200026FEE52425E0243CF582E43400F583E03B
:101C3000FCA3E0FDAF157E00122926E52425E02453
:101C400031F582E43400F583EEF0A3EFF0E52425CE
:101C5000E0243CF582E43400F583E0FEA3E0FFE5F8
:101C60002425E0242FF582E43400F583EEF0A3EF81
:101C7000F0E52425E0243CF582E43400F583E0FE21
:101C8000A3E0FFE52425E0242CF582E43400F5836D
:101C9000EEF0A3EFF0052461E690004FE0FCA3E036
:101CA000FD900049ECF0A3EDF0AF157E001229265F
:101CB00090003AEEF0A3EFF090002E7401F01225A0
:101CC000D3221218E1C3E09FF090003AE09EF0901A
:101CD000004FE0FEA3E0FF90003AEE8FF01229C320
:101CE0001218E1900046EEF0A3EFF0900049E0FEFC
:101CF000A3E0FFFD900046E0FAA3E0C39DFDEA9E4D
:101D0000FCEEC4F854F0C868FEEFC4540F48FF78E6
:101D10001BE670287602D3ED9400EC64809480403A
:101D200009900049E475F001800FC3EC6480948051
:101D3000500A90004974FFF5F01229C3C31218C16C
:101D400050081219111218C0504390004C7403F03F
:101D5000900042122B7200000000E4F52490003E37
:101D6000E0FFE524C39F5038E52412184EE0FEA39F
:101D7000E0FF75F002E52490002C122BA3EEF0A3F7
:101D8000EFF07D02AF241226FE052480D09000469D
:101D9000E0FEA3E0FF900049E0FCA3E0FD12234237
:101DA00022EFC394025002C163EFD394084002C1F2
:101DB00063200502C13D90FC03742BF090FC01747C
:101DC00080F0E490FC06F090FC057410F090FC01AB
:101DD0007481F090FC02E0908084F090FC02E0902E
:101DE0008083F0E490FC01F090FC0374AAF09080F2
:101DF00080E0FEE044E0F07593AF7592C775918A7C
:101E0000E59154C070FA859795859694EF24FE333A
:101E1000333354F84480F5AEE5AE30E0FB9080817A
:101E2000E054F84404F09080847407F09080837448
:101E3000FFF07591CAE59154C0601C80F8EF24FE54
:101E400033333354F84480F5AEE5AE30E0FB908098
:101E500081E054F84404F0300509EE44409080805D
:101E6000F0C2052290001CE064016002E11DF090C8
:101E70000023E0FCA3E0FDECC4F854F0C8EDC4542A
:101E80000F48FFED54CFFDEF2401FFEF5403C4F8DA
:101E9000540FC868FFE4C454F0484CFEEF4DFF9067
:101EA0000023EEF0A3EFF0900023E0FCA3E0FDECB4
:101EB000C4F854F0C8EDC4540F485403C39403E469
:101EC0009400400CED54CFFF900023ECF0A3EFF012
:101ED000900023E0C4F854F0C8A3E0C4540F485461
:101EE0000370057527078018900023E0C4F854F0AC
:101EF000C8A3E0C4540F4854036401700F75270150
:101F0000F528752901FB7D017F03800E7527077574
:101F100028007529017B01E4FDFF1225B12275EF30
:101F2000A77F06121DA11217829080397403F090CA
:101F3000803AF0908080E04408F0908080E030E2C9
:101F4000F9908081E0547FF0D2EE7B017D017F012A
:101F50001225F57F011227237F081226D57F36121E
:101F60002767E4FF122757E4FF12268A900053E503
:101F7000F4F0A3E5F3F09080007403F0908001F09A
:101F8000908002F0908003F0908004F0908010F038
:101F9000908011F0908012F0908013F0908014F0F7
:101FA000908015F0908016F0908034F01226EA753B
:101FB0002707752800752901E4FB7D017F031225A1
:101FC000B11226141227461200460220898FF7EF1D
:101FD00030E010ED33333354F8FFE5DD54F04F4576
:101FE00029800DED33333354F8FFE5DD54F04F4BCA
:0F1FF000F5DDE527C433333354804528F5DE2271
:102000008F27EF12184EE0FEA3E0C39DF529EE9C4A
:10201000F52875F002EF90003F122BA3E0F52AA3FC
:10202000E0F52B75F004EF902D57122BA3122B3AED
:10203000900042122B4A122AF6EC4D4E4F6010AE21
:102040002AAF2B7D501218B812298D8E2A8F2BE5BE
:10205000271218A8122938C3E529952BE52A12184A
:10206000FC40037F0022D31218F840037F0122C3F3
:10207000E5286480948040037F0222121911C31264
:1020800018F87F0440027F032212266E90003874F5
:1020900001F090003EF0E4FFFEEE25E025E0244B49
:1020A000F582E4342DF583740193FDAC070F74338E
:1020B0002CF582E43400F583EDF00EBE01DB908058
:1020C00080E04408F0908080E030E2F97B017D01FF
:1020D0007F011225F5E4FF1217FCD2EE12263375AC
:1020E000C14775C208D2E9C201900042122B7200AA
:1020F000000000E4F50D90002EF0900034F0750E15
:1021000004751503F50CF510F51122900028E03048
:10211000E07854FEF0900025E0C4540324FE6020D3
:102120001460362402704CE4FDFCFF12005EE4FDF6
:10213000FC7F0112005E900069E0FCA3E0FD804599
:10214000E4FDFCFF12005E900067E0FCA3E0FD7F71
:102150000112005EE4FDFC802C900065E0FCA3E031
:10216000FDE4FF12005EE4FDFC7F0112005EE4FD71
:10217000FC8012E4FDFCFF12005EE4FDFC7F011216
:10218000005EE4FDFC7F0212005E22AFB6BF600776
:10219000751AFFC2038054EF648070543003140535
:1021A0001AAB16AA17A918851A82F5831228A3F567
:1021B000B58053E51AB4FF2085B519E51975F0030C
:1021C000A4241CF582E4342EF583122BAF8B168ADF
:1021D000178918E4F51A8013AB16AA17A918851ADF
:1021E00082758300E5B5122904051A43B1048016EF
:1021F000BFA813AB16AA17A918851A8275830012F7
:1022000028A3F5B5D20343B7012285F72175C73F4F
:10221000E4FFFEFDEDC3950E50138DF785CF2285AB
:10222000CE23E5232FFFE5223EFE0D80E790003808
:10223000E0FDE50BC39D400A90004FEEF0A3EFF0E8
:102240008019E50B25E0243CF582E43400F583EEAB
:10225000F0A3EFF07D02AF0B1217F5050B900038DD
:10226000E0FFE50BD39F4004D201800312254C858B
:1022700021F7228B278A288929E41228F2F52BF5E9
:102280002AE52A25E025E02457F582E4342DF5835C
:10229000122B3A900042122B4A122AF6EC4D4E4F66
:1022A0006031AB27AA28A92974011228D012288AE4
:1022B000D39402501EE52A902DBC93FFE92401F926
:1022C000E43AFAAE2B052BEE7C0029F9EC3AFAEF52
:1022D0001228F2052AE52AB401A722E4F524900089
:1022E00038E0FFE524C39F5058E5249000311218D0
:1022F0003FC083C082E0FAA3E0FBE515FD7C00AFA0
:1023000003AE02122938C3EB9FFFEA9ED082D0832E
:10231000F0A3EFF0E524121845E0FEA3E0FF121849
:1023200082EE8FF01229C3E515FD7C00121882128F
:1023300018E9900036121885EEF0A3EFF00524801E
:102340009D228E258F268C278D28E4F52990003834
:10235000E0FFE529C39F5038E529121845E0FEA3A8
:10236000E0FFAC27AD28122BE8C006C007AE25AFB2
:1023700026AB07AA06E4F9F8D007D006122A64753E
:10238000F002E529121848EEF0A3EFF0052980BD10
:102390002290001EE07F00B402027F01900022E044
:1023A000FE7D00B402027D01ED4F600A900051E411
:1023B00075F0011229C3C3900052E094C4900051FB
:1023C000E094094013E4F0A3F0EEB402059000227B
:1023D000800390001E7401F022121F1ED2AF120E55
:1023E000B1121E64121536120B5D12080090002601
:1023F000E0FD30E6E9900023E0FAA3E0FBEAC31336
:10240000EB135401FFEB5401FBEB4F60D1ED54BFD4
:10241000900026F012194580C5C0E0C0F0C083C00E
:1024200082C0D075D000C000C001C002C003C0048B
:10243000C005C006C007E5B730E00312218BD00706
:10244000D006D005D004D003D002D001D000D0D027
:10245000D082D083D0F0D0E032E4FF90003EE0FEA6
:10246000EFC39E501D74482FF582E43400F583E0DD
:10247000600D74482FF582E43400F583E014F00F0A
:1024800080D9781BE6600116900041E0600214F0EC
:1024900090004CE0600214F022C0E0C0F0C083C0A5
:1024A00082C0D075D000C000C001C002C003C0040B
:1024B000C005C006C007E5C7600312220AD007D0D6
:1024C00006D005D004D003D002D001D000D0D0D0A7
:1024D00082D083D0F0D0E0328F24D2B37F05122790
:1024E00023E4F525C2B3E52430E704D2B28002C26A
:1024F000B27F097E00122651D2B37F097E001226D8
:1025000051E52425E0F5240525E525C3940840D4AC
:10251000C2B3C2B22290002BE004F0E0C3940440A6
:102520002AE4F0FF900038E0FEEFC39E501D744B8C
:102530002FF582E43400F583E0600D744B2FF582B3
:10254000E43400F583E014F00F80D922900038E0E5
:10255000FFE50BC39F50177D04AF0B1217F57433C3
:10256000250BF582E43400F583E004FE80027E1939
:10257000E4FFEFC3950E50078FF78EC40F80F3432F
:10258000C180228C278D288A298B2AEF1218A81245
:102590002938C3E528952AFDE5279529FC1218C09E
:1025A000500C121911C31218C140037F01227F0081
:1025B00022AC07E528F5E58529E4EBC454F0FFEDEE
:1025C000C43354E04F4527F5E2ECC43354E04410E3
:1025D000F5E122E4F50B7D04FF1217F5900033E0DE
:1025E00004FFE4FEEEC3950E50078EF78FC40E80F5
:1025F000F343C18022EFC43333335480FFE5F154F9
:102600001F4FFFEDC4333354C04FFFEBC43354E0CE
:102610004FF5F1229080177481F090800FF0908038
:102620000EF0908024F0908023F0908022F0908033
:1026300020F02290802F7404F0E4FF900038E0FE38
:10264000EFC39E500B12188D74021228F20F80EB0C
:10265000227C007D06122926EF1FAC0670011E4C5D
:10266000600BE4FBEBC3940F50EE0B80F7229081DC
:10267000017401F09080187404F0908019F075B125
:10268000C475B265D2EC43F8102243F102EFC433B3
:1026900054E0FFE5F4541F4FF5F47F017E0012264D
:1026A0005153F1FD22E4FE8EF7ED30E705EF42E3F2
:1026B0008004EFF452E3ED25E0FD0EBE08E922C0F0
:1026C000E0C0D0E5FA30E00875FA01A291B392912A
:1026D000D0D0D0E03243F102E5F454E04FF5F47F7E
:1026E000017E0012265153F1FD22E4F524E4FDAFF2
:1026F0002412003E0524E524C3940940F022ED9005
:102700002DB793FE744B2FF582E43400F583EEF081
:10271000227401A807088002C333D8FC42DBE5DB42
:1027200070FC22AA07AF021AEF60097F147E001224
:10273000265180F122A90789F78CD18DDF8AD38BAE
:10274000D2AF010227119080257481F090801B7414
:1027500042F090801AF02243F1028FF27F017E0056
:1027600012265153F1FD2243F1028FF37F017E00C7
:1027700012265153F1FD227401A807088002C333C9
:10278000D8FC42DA227F020224D87F010224D8E456
:10279000FF0224D8E709F608DFFA8046E709F208C5
:1027A000DFFA803E88828C83E709F0A3DFFA80326B
:1027B000E309F608DFFA8078E309F208DFFA8070AF
:1027C00088828C83E309F0A3DFFA806489828A839C
:1027D000E0A3F608DFFA805889828A83E0A3F20832
:1027E000DFFA804C80D280FA80C680D4806980F283
:1027F0008033801080A680EA809A80A880DA80E208
:1028000080CA803389828A83ECFAE493A3C8C582A4
:10281000C8CCC583CCF0A3C8C582C8CCC583CCDFE7
:10282000E9DEE7800D89828A83E493A3F608DFF965
:10283000ECFAA9F0EDFB2289828A83ECFAE0A3C8C6
:10284000C582C8CCC583CCF0A3C8C582C8CCC5831B
:10285000CCDFEADEE880DB89828A83E493A3F20896
:10286000DFF980CC88F0EF60010E4E60C388F0ED98
:102870002402B4040050B9F582EB2402B4040050E1
:10288000AF23234582239027E473BB010689828A04
:1028900083E0225002E722BBFE02E32289828A8380
:1028A000E49322BB010CE58229F582E5833AF583A6
:1028B000E0225006E92582F8E622BBFE06E92582E1
:1028C000F8E222E58229F582E5833AF583E4932252
:1028D000BB010989828A83F8E028F022500327F798
:1028E00022BBFE05F8E328F3228A838982F8E49369
:1028F0002822BB010689828A83F0225002F722BB7C
:10290000FE01F322F8BB010DE58229F582E5833A49
:10291000F583E8F0225006E92582C8F622BBFE05C1
:10292000E92582C8F222EF8DF0A4A8F0CF8CF0A4A4
:1029300028CE8DF0A42EFE22BC000BBE0029EF8D08
:10294000F084FFADF022E4CCF875F008EF2FFFEE35
:1029500033FEEC33FCEE9DEC984005FCEE9DFE0F43
:10296000D5F0E9E4CEFD22EDF8F5F0EE8420D21C9E
:10297000FEADF075F008EF2FFFED33FD40079850E6
:1029800006D5F0F222C398FD0FD5F0EA22C2D5ECAD
:1029900030E709B2D5E4C39DFDE49CFCEE30E715B9
:1029A000B2D5E4C39FFFE49EFE122938C3E49DFD27
:1029B000E49CFC800312293830D507C3E49FFFE470
:1029C0009EFE22C5F0F8A3E028F0C5F0F8E58215D8
:1029D0008270021583E038F022E88FF0A4CC8BF0EF
:1029E000A42CFCE98EF0A42CFC8AF0EDA42CFCEACB
:1029F0008EF0A4CDA8F08BF0A42DCC3825F0FDE905
:102A00008FF0A42CCD35F0FCEB8EF0A4FEA9F0EBFA
:102A10008FF0A4CFC5F02ECD39FEE43CFCEAA42D06
:102A2000CE35F0FDE43CFC2275F008758200EF2FF6
:102A3000FFEE33FECD33CDCC33CCC58233C5829B84
:102A4000ED9AEC99E58298400CF582EE9BFEED9AAA
:102A5000FDEC99FC0FD5F0D6E4CEFBE4CDFAE4CC46
:102A6000F9A88222B800C1B90059BA002DEC8BF048
:102A700084CFCECDFCE5F0CBF97818EF2FFFEE3305
:102A8000FEED33FDEC33FCEB33FB10D70399400430
:102A9000EB99FB0FD8E5E4F9FA227818EF2FFFEE57
:102AA00033FEED33FDEC33FCC933C910D7059BE988
:102AB0009A4007EC9BFCE99AF90FD8E0E4C9FAE4E4
:102AC000CCFB2275F010EF2FFFEE33FEED33FDCC83
:102AD00033CCC833C810D7079BEC9AE899400AED6D
:102AE0009BFDEC9AFCE899F80FD5F0DAE4CDFBE415
:102AF000CCFAE4C8F922EF5BFFEE5AFEED59FDEC8B
:102B000058FC22EF4BFFEE4AFEED49FDEC48FC225B
:102B1000CFF4CFCEF4CECDF4CDCCF4CC22EB9FF5D8
:102B2000F0EA9E42F0E99D42F0E89C45F022E0FC8C
:102B3000A3E0FDA3E0FEA3E0FF22E493FC74019375
:102B4000FD740293FE740393FF22E0F8A3E0F9A35F
:102B5000E0FAA3E0FB22E493F8740193F974029382
:102B6000FA740393FB22ECF0A3EDF0A3EEF0A3EFD5
:102B7000F022A8828583F0D083D082122B89122B79
:102B800089122B89122B89E473E493A3C583C5F0C2
:102B9000C583C8C582C8F0A3C583C5F0C583C8C5B1
:102BA00082C822A42582F582E5F03583F58322E4EC
:102BB00093FB740193FA740293F922D083D082F8C4
:102BC000E4937012740193700DA3A393F8740193AE
:102BD000F5828883E473740293B5F00674039368F6
:102BE00060E9A3A3A3A380D8EC8EF0A4CCC5F0CC5D
:102BF000CDF8EFA4CEC5F02DFDE43CFCE8A42EC832
:102C0000C5F03DFDE43CFCEFA4FFE5F028FEE43D0B
:102C1000FDE43CFC2244005300000000440057083F
:102C200016000C44005B0616000C44005F00000018
:102C300000410063004200510000C18541002000B6
:102C4000410021004100220041001E0041001F0000
:102C500041001C0041001D0048002300000000004E
:102C60000000004200000000420002000042000498
:102C700000004200060000420008000042000A0076
:102C80000042000C000042000E0000420010000054
:102C900042001200004200140000420016000042F0
:102CA0000018000042001A000047006401032003DE
:102CB00020032041006B3241002B00010800007806
:102CC0007FE4F6D8FD75812B022D060223D9E4930B
:102CD000A3F8E493A34003F68001F208DFF480290F
:102CE000E493A3F85407240CC8C333C4540F4420FE
:102CF000C8834004F456800146F6DFE4800B0102ED
:102D0000040810204080902C15E47E019360BCA341
:102D1000FF543F30E509541FFEE493A360010ECF3A
:102D200054C025E060A840B8E493A3FAE493A3F864
:102D3000E493A3C8C582C8CAC583CAF0A3C8C58224
:102D4000C8CAC583CADFE9DEE780BE000D003200D5
:102D50000000000000000000000001000000020070
:102D60000000040000000800000010000000200027
:102D70000000400000008000000100000002000090
:102D80000004000000080000001000000020000007
:102D90000040000000800000010000000200000070
:102DA00004000000080000001000000020000000E7
:102DB00040000000800000033232321E0102030492
:102DC00005060708090A0B0C0D0E0F10111213143B
:102DD0001516171801803801803701803601801FD1
:102DE00001801E01801B01801A01802701802601BD
:102DF000802501802401802301802201802101801F
:102E00002001801C01801D01802E01802801802965
:102E100001802A01802B01802C01802D01006B0193
:102E2000002E01003E010049010046010042010060
:102E30002F01003601003F0100330000001414147C
:102E40002828283C3C3C5050506464643F065B4F4B
:062E5000666D7D077F6F37
:00000001FF
