:10000E001209D51206F712086D7408FBFA7D017FEE
:0C001E000112098012002E1209E980F87E
:100759004200000000420002000058000401CE00DF
:100769009A00F6005200FA01F20000000000FA01B6
:05077900E0000000009B
:1006F700E4900046F0FBFDFF1208C4E4900046F0CA
:10070700FBFDFF1208DFE4FDFC7FF47E0112095AAE
:10071700E4FDFC7FF47E0112096D7F041209A07FBE
:10072700051209A09080047405F0908005F0908070
:10073700007481F0908001F0908002F090800304B3
:10074700F0908006F0908007F090801A7442F0C213
:02075700B222CC
:1006860090002BE0FCA3E0FDECC4131354037A00A6
:100696005403FB700CED5410FFE4C313FEEF1380FC
:1006A6003CEB64014A701790002BE0FCA3E0FD7E52
:1006B6000054207802CEC313CE13D8F9801F9000C1
:1006C6002BE0FCA3E0FDECC413135403640270207A
:1006D600FEED54407803CEC313CE13D8F9FFED5484
:1006E600F7FDEC4EFEED4FFF90002BEEF0A3EFF082
:0106F60022E1
:1003360090002BE0C413135403704BE0FCA3E0FDC4
:10034600ECC4F854F0C8EDC4540F485401FFED5402
:10035600EFFDEF64015401C4F8540FC868FFE4C40C
:1003660054F048FEEC4EFEED4FFF90002BEEF0A34E
:10037600EFF090002BE0FCA3E0FD5410FFE4C31364
:10038600FEEF1302044490002BE0C41313540364DD
:10039600017050E0FCA3E0FD7A007B01AE04780515
:1003A600CEC313CE13D8F95401FFED54DFFDEF6B26
:1003B6007E0054017805C333CE33CED8F9FFEC4E18
:1003C600FEED4FFF90002BEEF0A3EFF090002BE038
:1003D600FCA3E0FD7E0054207802CEC313CE13D8D2
:1003E600F9805B90002BE0C4131354036402706120
:1003F600E0FCA3E0FD7A007B01AE047806CEC313D1
:10040600CE13D8F95401FFED54BFFDEF6B7E0054B7
:10041600017806C333CE33CED8F9FFEC4EFEED4F4E
:10042600FF90002BEEF0A3EFF090002BE0FCA3E092
:10043600FD7E0054407803CEC313CE13D8F9FFEDEA
:1004460054F7FDEC4EFEED4FFF90002BEEF0A3EFC0
:02045600F02292
:1008FA00E4FDFC7FF47E0112095AE4FDFC7FF47EDC
:04090A000102096D70
:1007F80090002CE030E22154FBF0900000E0FCA3D4
:10080800E0FD7FF47E0112095A900002E0FCA3E0AB
:09081800FD7FF47E0112096D223E
:10052E0090002BE0C413135403605524FE607C141A
:10053E0070030205E4240260030205F97F04120928
:10054E00A07F051209A090002CE020E31490000477
:10055E00E0FFA3E0900000CFF0A3EFF09000068044
:10056E0012900008E0FFA3E0900000CFF0A3EFF0A0
:10057E0090000AE0FFA3E0900002CFF0A3EFF0227C
:10058E007F041209A07F0512099190002CE020E350
:10059E000590000E800390000CE0FFA3E090000099
:1005AE00CFF0A3EFF0E4900002803D7F041209919A
:1005BE007F051209A090002CE020E3059000168024
:1005CE0003900014E0FFA3E0900002CFF0A3EFF041
:1005DE00E4900000801290002BE0F0A3E054FCF0B9
:0C05EE00E4900000F0A3F0A3F0A3F022C2
:07077E0044003700000000F9
:03002B000207B514
:1007B500C0E0C0F0C083C082C0D075D000C000C00A
:1007C50001C002C003C004C005C006C007E5D5309E
:1007D500E00643D501120202D007D006D005D004A9
:1007E500D003D002D001D000D0D0D082D083D0F0B9
:0307F500D0E0321F
:03000B0002045894
:10045800C0E0C083C082C0D075D000C000C004C056
:1004680005C006C007758AC4758CFAC28D9000381D
:10047800E004F07006900037E004F0900037E0B434
:100488000310A3E0B4E80B900037E4F0A3F0A3E076
:1004980004F0900039E0B43C3FE4F090002BE0FC1D
:1004A800A3E0FDAE047807CEC313CE13D8F9FFEC52
:1004B80054C0FCED547FFDEF24FFFF7E00EF547F16
:1004C8007807C333CE33CED8F9FFEE4CFEEF4DFF9D
:1004D80090002BEEF0A3EFF090002BE0FCA3E0FDE2
:1004E800AE047807CEC313CE13D8F9547F7024AE68
:1004F80004ED54FCFF90002BEEF0A3EFF0EE54C097
:10050800FEEF547FFF90002BEEF0A3EFF0C28DC2F8
:100518008CC2A9D007D006D005D004D000D0D0D046
:0605280082D083D0E03216
:10086D00758901758AC4758CFAC28DD2A9C28C9016
:10087D008030E04440F075D580E4F5D6D2ADD2AFEE
:01088D002248
:1007850041002A00410028004100290042002B00B9
:100795000042001C000042001E0000420020000034
:0F07A50042002200004200240000420026000013
:100202002080140020802690001DE004F0701E90D3
:10021200001CE004F0801690001CE0FFA3E09000B8
:1002220022CFF0A3EFF0E490001CF0A3F0208114A1
:100232000020812690001FE004F0701E90001EE056
:1002420004F0801690001EE0FFA3E0900024CFF09F
:10025200A3EFF0E490001EF0A3F0208214002082AD
:1002620026900021E004F0701E900020E004F0804F
:1002720016900020E0FFA3E0900026CFF0A3EFF05D
:10028200E4900020F0A3F0900022E0FEA3E0FFC380
:1002920094FFEE94005010EF9401EE940040089009
:1002A200002A7401F08032C390001DE094FF900098
:1002B2001CE09400402390002BE0FEA3E054FCFFDE
:1002C20090002BEEF0FEA3EFF0EE54C0FEEF547F51
:1002D200FF90002BEEF0A3EFF0900024E0FEA3E0ED
:1002E200FFC394FFEE9400500EEF9401EE94004091
:1002F200069000287401F0900026E0FEA3E0FFC300
:1003020094FFEE9400500FEF9401EE94004007909A
:1003120000297401F022C3900021E094FF90002094
:10032200E09400400E90002BE054C0F0A3E0547F14
:03033200F0C28C8A
:0103350022A5
:10002E0090002AE06401707BF0A3E0FCA3E0FDECFD
:10003E00C413135403FFEC543FFCEF2401FFE433CD
:10004E00EF5403C4333354C04CFFED90002BCFF06C
:10005E00A3EFF090002BE0FCA3E0FDECC4131354CF
:10006E0003C39404E49400400CEC543FAF0590009D
:10007E002BF0A3EFF090002BE0FEA3E0FF540370F3
:10008E0018EE543FFE90002BF0A3EFF054FC440109
:10009E00FF90002BEEF0A3EFF012068690002CE0FE
:1000AE004404F0900028E0B4010CE4F01203369002
:1000BE00002CE04404F0900029E06401600302018A
:1000CE0070F01209E990002BE0FCA3E0FD540370E0
:1000DE0003020169C28CE4900039F0900037F0A35E
:1000EE00F0EDAE047807CEC313CE13D8F9547FFFCC
:1000FE00EC54C0FCED547FFDEF241EFF7E00EF5448
:10010E007F7807C333CE33CED8F9FFEC4EFEED4FDA
:10011E00FF90002BEEF0A3EFF090002BE0FCA3E09D
:10012E00FDAE047807CEC313CE13D8F9547FC39413
:10013E0078E49400400FEC54C0FFED547F90002BF8
:10014E00CFF0A3EFF090002BE0FEA3E07807CEC334
:10015E0013CE13D8F9547F6002D28C90002CE04459
:10016E0004F090002CE05403600312052E90002B37
:10017E00E0FEA3E0FF54037030C28C900039F09083
:10018E000037F0A3F0EE54C0FEEF547FFF90002B2B
:10019E00EEF0A3EFF0E4900000F0A3F0900002F078
:1001AE00A3F090002CE04404F01207F890002BE02E
:1001BE00FEA3E07807CEC313CE13D8F97E00547F8A
:1001CE00FFD3943CEE94004007C286C287C28322BE
:1001DE00D3EF941EEE94004007C286C287D28322CC
:1001EE00D3EF9400EE94004004C2868002D286D2F1
:0401FE0087D28322FF
:10098000EFC4333354C04DF5A0EAF5A3AF038FA2F3
:010990002244
:0409E90075A1A5222D
:10088E00AE03EEC4333354C0FEEFC433333354805F
:0B089E004E4DF5B990003EE0F5B12290
:10082100AE03EEC4333354C0FEEFC43333335480CC
:100831004EFF900031E033333354F84F4DF5BA9009
:060841000030E0F5B222D8
:10084700AE03EEC4333354C0FEEFC43333335480A6
:100857004EFF900036E033333354F84F4DF5BB90DD
:060867000035E0F5B322AC
:1008A900AE03EEC4333354C0FEEFC4333333548044
:0B08B9004E4DF5BC900042E0F5B4226B
:1008C400AE03EEC4333354C0FEEFC4333333548029
:0B08D4004E4DF5BD900046E0F5B5224A
:1008DF00AE03EEC4333354C0FEEFC433333354800E
:0B08EF004E4DF5BE900046E0F5B6222D
:10090E00AB07AA06EAF5AAAF038FA9ECF59CAF05D3
:03091E008F9B228A
:10092100AB07AA06EAF5ACAF038FABECF59EAF05BA
:030931008F9D2275
:10093400AB07AA06EAF5AEAF038FADECF591AF05B0
:030944008F9F2260
:10094700AB07AA06EAF5A4AF038FAFECF593AF05A3
:030957008F92225A
:10095A00AB07AA06EAF5A6AF038FA5ECF595AF0596
:03096A008F942245
:10096D00AB07AA06EAF59AAF038FA7ECF597AF058B
:03097D008F962230
:0D09BC00AC06EC908061F0908060EFF022BE
:0C09C900AD07AC06ECF5CFAF058FCE22D9
:08000300E5BF20E3FB8FD722CB
:0809E100E5BF20E7FB8FC722F0
:0E09A0007401A807088002C333D8FC429022DD
:0F0991007401A807088002C333D8FCF4529022E7
:0C09D500908030E04480F0E054FEF022FE
:0E09AE00908030E04440F0E054FE4401F0221E
:030000000205FAFC
:0C05FA00787FE4F6D8FD75810702064109
:1006060002000EE493A3F8E493A34003F68001F2FC
:1006160008DFF48029E493A3F85407240CC8C333F5
:10062600C4540F4420C8834004F456800146F6DFC4
:10063600E4800B0102040810204080900759E47EF4
:10064600019360BCA3FF543F30E509541FFEE493B9
:10065600A360010ECF54C025E060A840B8E493A380
:10066600FAE493A3F8E493A3C8C582C8CAC583CAAB
:10067600F0A3C8C582C8CAC583CADFE9DEE780BE63
:0107B4000044
:00000001FF
